{
  "_format": "hh-sol-artifact-1",
  "contractName": "ArticleNFT",
  "sourceName": "contracts/ArticleNFT.sol",
  "abi": [
    {
      "inputs": [],
      "stateMutability": "nonpayable",
      "type": "constructor"
    },
    {
      "inputs": [],
      "name": "AlreadyMinted",
      "type": "error"
    },
    {
      "inputs": [],
      "name": "ArweaveIdEmpty",
      "type": "error"
    },
    {
      "inputs": [],
      "name": "ContentHashEmpty",
      "type": "error"
    },
    {
      "inputs": [],
      "name": "ExceedsMaxSupply",
      "type": "error"
    },
    {
      "inputs": [],
      "name": "InsufficientPayment",
      "type": "error"
    },
    {
      "inputs": [],
      "name": "MaxSupplyInvalid",
      "type": "error"
    },
    {
      "inputs": [],
      "name": "NameEmpty",
      "type": "error"
    },
    {
      "inputs": [],
      "name": "NoBalanceToWithdraw",
      "type": "error"
    },
    {
      "inputs": [],
      "name": "NotTokenOwner",
      "type": "error"
    },
    {
      "inputs": [],
      "name": "RoyaltyFeeTooHigh",
      "type": "error"
    },
    {
      "inputs": [],
      "name": "TokenNotExist",
      "type": "error"
    },
    {
      "anonymous": false,
      "inputs": [
        {
          "indexed": true,
          "internalType": "address",
          "name": "owner",
          "type": "address"
        },
        {
          "indexed": true,
          "internalType": "address",
          "name": "approved",
          "type": "address"
        },
        {
          "indexed": true,
          "internalType": "uint256",
          "name": "tokenId",
          "type": "uint256"
        }
      ],
      "name": "Approval",
      "type": "event"
    },
    {
      "anonymous": false,
      "inputs": [
        {
          "indexed": true,
          "internalType": "address",
          "name": "owner",
          "type": "address"
        },
        {
          "indexed": true,
          "internalType": "address",
          "name": "operator",
          "type": "address"
        },
        {
          "indexed": false,
          "internalType": "bool",
          "name": "approved",
          "type": "bool"
        }
      ],
      "name": "ApprovalForAll",
      "type": "event"
    },
    {
      "anonymous": false,
      "inputs": [
        {
          "indexed": true,
          "internalType": "uint256",
          "name": "tokenId",
          "type": "uint256"
        },
        {
          "indexed": true,
          "internalType": "address",
          "name": "author",
          "type": "address"
        },
        {
          "indexed": true,
          "internalType": "address",
          "name": "minter",
          "type": "address"
        },
        {
          "indexed": false,
          "internalType": "string",
          "name": "name",
          "type": "string"
        },
        {
          "indexed": false,
          "internalType": "uint256",
          "name": "price",
          "type": "uint256"
        },
        {
          "indexed": false,
          "internalType": "string",
          "name": "contentHash",
          "type": "string"
        },
        {
          "indexed": false,
          "internalType": "string",
          "name": "arweaveId",
          "type": "string"
        },
        {
          "indexed": false,
          "internalType": "string",
          "name": "version",
          "type": "string"
        }
      ],
      "name": "ArticleMinted",
      "type": "event"
    },
    {
      "anonymous": false,
      "inputs": [
        {
          "indexed": true,
          "internalType": "address",
          "name": "previousOwner",
          "type": "address"
        },
        {
          "indexed": true,
          "internalType": "address",
          "name": "newOwner",
          "type": "address"
        }
      ],
      "name": "OwnershipTransferred",
      "type": "event"
    },
    {
      "anonymous": false,
      "inputs": [
        {
          "indexed": true,
          "internalType": "address",
          "name": "from",
          "type": "address"
        },
        {
          "indexed": true,
          "internalType": "address",
          "name": "to",
          "type": "address"
        },
        {
          "indexed": true,
          "internalType": "uint256",
          "name": "tokenId",
          "type": "uint256"
        }
      ],
      "name": "Transfer",
      "type": "event"
    },
    {
      "inputs": [
        {
          "internalType": "address",
          "name": "to",
          "type": "address"
        },
        {
          "internalType": "uint256",
          "name": "tokenId",
          "type": "uint256"
        }
      ],
      "name": "approve",
      "outputs": [],
      "stateMutability": "nonpayable",
      "type": "function"
    },
    {
      "inputs": [
        {
          "internalType": "uint256",
          "name": "",
          "type": "uint256"
        }
      ],
      "name": "articles",
      "outputs": [
        {
          "internalType": "address",
          "name": "author",
          "type": "address"
        },
        {
          "internalType": "string",
          "name": "name",
          "type": "string"
        },
        {
          "internalType": "string",
          "name": "contentHash",
          "type": "string"
        },
        {
          "internalType": "string",
          "name": "arweaveId",
          "type": "string"
        },
        {
          "internalType": "string",
          "name": "version",
          "type": "string"
        },
        {
          "internalType": "uint256",
          "name": "timestamp",
          "type": "uint256"
        },
        {
          "internalType": "uint256",
          "name": "price",
          "type": "uint256"
        },
        {
          "internalType": "uint256",
          "name": "maxSupply",
          "type": "uint256"
        },
        {
          "internalType": "uint96",
          "name": "royaltyFee",
          "type": "uint96"
        },
        {
          "internalType": "bool",
          "name": "onePerAddress",
          "type": "bool"
        }
      ],
      "stateMutability": "view",
      "type": "function"
    },
    {
      "inputs": [
        {
          "internalType": "address",
          "name": "owner",
          "type": "address"
        }
      ],
      "name": "balanceOf",
      "outputs": [
        {
          "internalType": "uint256",
          "name": "",
          "type": "uint256"
        }
      ],
      "stateMutability": "view",
      "type": "function"
    },
    {
      "inputs": [
        {
          "internalType": "uint256",
          "name": "tokenId",
          "type": "uint256"
        }
      ],
      "name": "burnArticle",
      "outputs": [],
      "stateMutability": "nonpayable",
      "type": "function"
    },
    {
      "inputs": [
        {
          "internalType": "uint256",
          "name": "tokenId",
          "type": "uint256"
        }
      ],
      "name": "getApproved",
      "outputs": [
        {
          "internalType": "address",
          "name": "",
          "type": "address"
        }
      ],
      "stateMutability": "view",
      "type": "function"
    },
    {
      "inputs": [
        {
          "internalType": "uint256",
          "name": "articleId",
          "type": "uint256"
        }
      ],
      "name": "getArticle",
      "outputs": [
        {
          "internalType": "address",
          "name": "author",
          "type": "address"
        },
        {
          "internalType": "string",
          "name": "name",
          "type": "string"
        },
        {
          "internalType": "string",
          "name": "contentHash",
          "type": "string"
        },
        {
          "internalType": "string",
          "name": "arweaveId",
          "type": "string"
        },
        {
          "internalType": "string",
          "name": "version",
          "type": "string"
        },
        {
          "internalType": "uint256",
          "name": "timestamp",
          "type": "uint256"
        },
        {
          "internalType": "uint256",
          "name": "price",
          "type": "uint256"
        },
        {
          "internalType": "uint256",
          "name": "maxSupply",
          "type": "uint256"
        },
        {
          "internalType": "uint256",
          "name": "currentSupply",
          "type": "uint256"
        },
        {
          "internalType": "uint96",
          "name": "royaltyFee",
          "type": "uint96"
        },
        {
          "internalType": "bool",
          "name": "onePerAddress",
          "type": "bool"
        }
      ],
      "stateMutability": "view",
      "type": "function"
    },
    {
      "inputs": [
        {
          "internalType": "uint256",
          "name": "",
          "type": "uint256"
        },
        {
          "internalType": "address",
          "name": "",
          "type": "address"
        }
      ],
      "name": "hasMinted",
      "outputs": [
        {
          "internalType": "bool",
          "name": "",
          "type": "bool"
        }
      ],
      "stateMutability": "view",
      "type": "function"
    },
    {
      "inputs": [
        {
          "internalType": "address",
          "name": "owner",
          "type": "address"
        },
        {
          "internalType": "address",
          "name": "operator",
          "type": "address"
        }
      ],
      "name": "isApprovedForAll",
      "outputs": [
        {
          "internalType": "bool",
          "name": "",
          "type": "bool"
        }
      ],
      "stateMutability": "view",
      "type": "function"
    },
    {
      "inputs": [
        {
          "internalType": "address",
          "name": "author",
          "type": "address"
        },
        {
          "internalType": "string",
          "name": "name",
          "type": "string"
        },
        {
          "internalType": "string",
          "name": "contentHash",
          "type": "string"
        },
        {
          "internalType": "string",
          "name": "arweaveId",
          "type": "string"
        },
        {
          "internalType": "string",
          "name": "version",
          "type": "string"
        },
        {
          "internalType": "uint256",
          "name": "price",
          "type": "uint256"
        },
        {
          "internalType": "uint256",
          "name": "maxSupply",
          "type": "uint256"
        },
        {
          "internalType": "uint96",
          "name": "royaltyFee",
          "type": "uint96"
        },
        {
          "internalType": "bool",
          "name": "onePerAddress",
          "type": "bool"
        }
      ],
      "name": "mintArticle",
      "outputs": [
        {
          "internalType": "uint256",
          "name": "",
          "type": "uint256"
        }
      ],
      "stateMutability": "payable",
      "type": "function"
    },
    {
      "inputs": [
        {
          "internalType": "uint256",
          "name": "",
          "type": "uint256"
        }
      ],
      "name": "mintedCount",
      "outputs": [
        {
          "internalType": "uint256",
          "name": "",
          "type": "uint256"
        }
      ],
      "stateMutability": "view",
      "type": "function"
    },
    {
      "inputs": [],
      "name": "name",
      "outputs": [
        {
          "internalType": "string",
          "name": "",
          "type": "string"
        }
      ],
      "stateMutability": "view",
      "type": "function"
    },
    {
      "inputs": [],
      "name": "owner",
      "outputs": [
        {
          "internalType": "address",
          "name": "",
          "type": "address"
        }
      ],
      "stateMutability": "view",
      "type": "function"
    },
    {
      "inputs": [
        {
          "internalType": "uint256",
          "name": "tokenId",
          "type": "uint256"
        }
      ],
      "name": "ownerOf",
      "outputs": [
        {
          "internalType": "address",
          "name": "",
          "type": "address"
        }
      ],
      "stateMutability": "view",
      "type": "function"
    },
    {
      "inputs": [],
      "name": "renounceOwnership",
      "outputs": [],
      "stateMutability": "nonpayable",
      "type": "function"
    },
    {
      "inputs": [
        {
          "internalType": "uint256",
          "name": "tokenId",
          "type": "uint256"
        },
        {
          "internalType": "uint256",
          "name": "salePrice",
          "type": "uint256"
        }
      ],
      "name": "royaltyInfo",
      "outputs": [
        {
          "internalType": "address",
          "name": "receiver",
          "type": "address"
        },
        {
          "internalType": "uint256",
          "name": "royaltyAmount",
          "type": "uint256"
        }
      ],
      "stateMutability": "view",
      "type": "function"
    },
    {
      "inputs": [
        {
          "internalType": "address",
          "name": "from",
          "type": "address"
        },
        {
          "internalType": "address",
          "name": "to",
          "type": "address"
        },
        {
          "internalType": "uint256",
          "name": "tokenId",
          "type": "uint256"
        }
      ],
      "name": "safeTransferFrom",
      "outputs": [],
      "stateMutability": "nonpayable",
      "type": "function"
    },
    {
      "inputs": [
        {
          "internalType": "address",
          "name": "from",
          "type": "address"
        },
        {
          "internalType": "address",
          "name": "to",
          "type": "address"
        },
        {
          "internalType": "uint256",
          "name": "tokenId",
          "type": "uint256"
        },
        {
          "internalType": "bytes",
          "name": "data",
          "type": "bytes"
        }
      ],
      "name": "safeTransferFrom",
      "outputs": [],
      "stateMutability": "nonpayable",
      "type": "function"
    },
    {
      "inputs": [
        {
          "internalType": "address",
          "name": "operator",
          "type": "address"
        },
        {
          "internalType": "bool",
          "name": "approved",
          "type": "bool"
        }
      ],
      "name": "setApprovalForAll",
      "outputs": [],
      "stateMutability": "nonpayable",
      "type": "function"
    },
    {
      "inputs": [
        {
          "internalType": "bytes4",
          "name": "interfaceId",
          "type": "bytes4"
        }
      ],
      "name": "supportsInterface",
      "outputs": [
        {
          "internalType": "bool",
          "name": "",
          "type": "bool"
        }
      ],
      "stateMutability": "view",
      "type": "function"
    },
    {
      "inputs": [],
      "name": "symbol",
      "outputs": [
        {
          "internalType": "string",
          "name": "",
          "type": "string"
        }
      ],
      "stateMutability": "view",
      "type": "function"
    },
    {
      "inputs": [
        {
          "internalType": "uint256",
          "name": "tokenId",
          "type": "uint256"
        }
      ],
      "name": "tokenURI",
      "outputs": [
        {
          "internalType": "string",
          "name": "",
          "type": "string"
        }
      ],
      "stateMutability": "view",
      "type": "function"
    },
    {
      "inputs": [
        {
          "internalType": "address",
          "name": "from",
          "type": "address"
        },
        {
          "internalType": "address",
          "name": "to",
          "type": "address"
        },
        {
          "internalType": "uint256",
          "name": "tokenId",
          "type": "uint256"
        }
      ],
      "name": "transferFrom",
      "outputs": [],
      "stateMutability": "nonpayable",
      "type": "function"
    },
    {
      "inputs": [
        {
          "internalType": "address",
          "name": "newOwner",
          "type": "address"
        }
      ],
      "name": "transferOwnership",
      "outputs": [],
      "stateMutability": "nonpayable",
      "type": "function"
    },
    {
      "inputs": [],
      "name": "withdraw",
      "outputs": [],
      "stateMutability": "nonpayable",
      "type": "function"
    }
  ],
  "bytecode": "0x60a06040523461037b57604080519081016001600160401b03811182821017610288576040908152600b82526a105c9d1a58db194813919560aa1b602083015280519081016001600160401b038111828210176102885760405260048152631053919560e21b602082015281516001600160401b03811161028857600054600181811c91168015610371575b602082101461026857601f811161030d575b50602092601f82116001146102a9579281929360009261029e575b50508160011b916000199060031b1c1916176000555b80516001600160401b03811161028857600154600181811c9116801561027e575b602082101461026857601f8111610203575b50602091601f821160011461019f57918192600092610194575b50508160011b916000199060031b1c1916176001555b60068054336001600160a01b03198216811790925560405191906001600160a01b03167f8be0079c531659141344cd1fd0a4f28419497f9722a3daafe3b4186f6b6457e0600080a36103e86080526121ac9081610381823960805181610fd20152f35b01519050388061011b565b601f198216926001600052806000209160005b8581106101eb575083600195106101d2575b505050811b01600155610131565b015160001960f88460031b161c191690553880806101c4565b919260206001819286850151815501940192016101b2565b60016000527fb10e2d527612073b26eecdfd717e6a320cf44b4afac2b0732d9fcbe2b7fa0cf6601f830160051c8101916020841061025e575b601f0160051c01905b8181106102525750610101565b60008155600101610245565b909150819061023c565b634e487b7160e01b600052602260045260246000fd5b90607f16906100ef565b634e487b7160e01b600052604160045260246000fd5b0151905038806100b8565b601f1982169360008052806000209160005b8681106102f557508360019596106102dc575b505050811b016000556100ce565b015160001960f88460031b161c191690553880806102ce565b919260206001819286850151815501940192016102bb565b600080527f290decd9548b62a8d60345a988386fc84ba6bc95484008f6362f93160ef3e563601f830160051c81019160208410610367575b601f0160051c01905b81811061035b575061009d565b6000815560010161034e565b9091508190610345565b90607f169061008b565b600080fdfe608080604052600436101561001357600080fd5b600090813560e01c90816301ffc9a7146117da57508063037807331461179157806306fdde0314611709578063081812fc146116ea578063095ea7b31461156657806323b872dd146115415780632a55205a146115095780632ec0323014610a525780633ccfd60b146109f957806342842e0e146109c45780635e3543321461099a5780636352211e1461096957806370a08231146108d3578063715018a6146108765780638da5cb5b1461084d57806395d89b411461076a5780639d6333601461069b578063a22cb465146105c7578063b88d4fde14610539578063bd85d867146103bb578063c87b56dd14610345578063e985e9c5146102eb578063edcfafe6146101f55763f2fde38b1461012957600080fd5b346101f25760203660031901126101f257610142611866565b61014a611ee8565b6001600160a01b0316801561019e57600680546001600160a01b0319811683179091556001600160a01b03167f8be0079c531659141344cd1fd0a4f28419497f9722a3daafe3b4186f6b6457e0600080a380f35b60405162461bcd60e51b815260206004820152602660248201527f4f776e61626c653a206e6577206f776e657220697320746865207a65726f206160448201526564647265737360d01b6064820152608490fd5b80fd5b50346101f25760203660031901126101f257604061014091600435815260076020522060018060a01b038154169060ff610231600183016119fe565b61023d600284016119fe565b9261024a600382016119fe565b936102bb61025a600484016119fe565b6102ad60058501549761029f600687015495610291600860078a0154990154996040519e8f9e8f908152816020820152019061189f565b8c810360408e01529061189f565b908a820360608c015261189f565b9088820360808a015261189f565b9460a087015260c086015260e08501526001600160601b03811661010085015260601c1615156101208301520390f35b50346101f25760403660031901126101f2576040610307611866565b9161031061184b565b9260018060a01b031681526005602052209060018060a01b0316600052602052602060ff604060002054166040519015158152f35b50346101f25760203660031901126101f25760043560009081526002602052604090205461037d906001600160a01b03161515611c78565b8060405161038c602082611931565b52506103b760405161039f602082611931565b6000815260405191829160208352602083019061189f565b0390f35b50346101f25760203660031901126101f2576004359081815260076020526040812091604051926103eb846118fe565b80546001600160a01b03168452610404600182016119fe565b6020850190815292610418600283016119fe565b604086019081529461042c600384016119fe565b6060820190815292610440600482016119fe565b948560808401526005820154958660a08501526006830154918260c08601526007840154938460e087015260080154956101008601956001600160601b038816875261012081019760601c60ff1615158852600160a01b6001900390511699519a5197519181526008602052604090205494516001600160601b031695511515966040519a8b9a8b5260208b0161016090526101608b016104e09161189f565b8a810360408c01526104f19161189f565b89810360608b01526105029161189f565b88810360808a01526105139161189f565b9560a088015260c087015260e08601526101008501526101208401526101408301520390f35b50346101f25760803660031901126101f257610553611866565b61055b61184b565b906064359060443567ffffffffffffffff83116105c357366023840112156105c3576105c0936105986105bb94369060248160040135910161196f565b926105ab6105a68433611ce7565b611ae0565b6105b6838383611dba565b6120d1565b611f93565b80f35b8480fd5b50346101f25760403660031901126101f2576105e1611866565b60243590811515809203610697576001600160a01b031690338214610652573383526005602052604083208284526020526040832060ff1981541660ff83161790556040519081527f17307eab39ab6107e8899845ad3d59bd9653f200f220920489ca2b5937696c3160203392a380f35b60405162461bcd60e51b815260206004820152601960248201527f4552433732313a20617070726f766520746f2063616c6c6572000000000000006044820152606490fd5b8280fd5b50346101f25760203660031901126101f257600435808252600260205260408220546001600160a01b0316330361075b576106d581611cc4565b50816106e082611cc4565b8282526004602052604082206001600160601b0360a01b815416905560018060a01b031680825260036020526040822060001981540190558282526002602052604082206001600160601b0360a01b81541690557fddf252ad1be2c89b69c2b068fc378daa952ba7f163c4a11628f55a4df523b3ef8280a480f35b6359dc379f60e01b8252600482fd5b50346101f257806003193601126101f25760405190806001549061078d826119c4565b808552916001811690811561082657506001146107c9575b6103b7846107b581860382611931565b60405191829160208352602083019061189f565b600181527fb10e2d527612073b26eecdfd717e6a320cf44b4afac2b0732d9fcbe2b7fa0cf6939250905b80821061080c575090915081016020016107b5826107a5565b9192600181602092548385880101520191019092916107f3565b60ff191660208087019190915292151560051b850190920192506107b591508390506107a5565b50346101f257806003193601126101f2576006546040516001600160a01b039091168152602090f35b50346101f257806003193601126101f25761088f611ee8565b600680546001600160a01b0319811690915581906001600160a01b03167f8be0079c531659141344cd1fd0a4f28419497f9722a3daafe3b4186f6b6457e08280a380f35b50346101f25760203660031901126101f2576001600160a01b036108f5611866565b168015610912578160409160209352600383522054604051908152f35b60405162461bcd60e51b815260206004820152602960248201527f4552433732313a2061646472657373207a65726f206973206e6f7420612076616044820152683634b21037bbb732b960b91b6064820152608490fd5b50346101f25760203660031901126101f2576020610988600435611cc4565b6040516001600160a01b039091168152f35b50346101f25760203660031901126101f25760406020916004358152600883522054604051908152f35b50346101f2576105c06105bb6109d9366118c4565b90604051926109e9602085611931565b8684526105ab6105a68433611ce7565b50346101f257806003193601126101f257610a12611ee8565b478015610a435760065482918291829182916001600160a01b031682f115610a375780f35b604051903d90823e3d90fd5b63177b02e160e31b8252600482fd5b506101203660031901126101f257610a68611866565b60243567ffffffffffffffff811161069757610a889036906004016119a6565b9060443567ffffffffffffffff811161150557610aa99036906004016119a6565b9160643567ffffffffffffffff81116105c357610aca9036906004016119a6565b9060843567ffffffffffffffff811161150157610aeb9036906004016119a6565b9160c4359460e4356001600160601b0381168091036114fd5761010435968715158098036114f9578451156114ea578251156114db578351156114cc5780156114bd5761271082116114ae5760a435341061149f576040516020810190610b818160208751610b5d8187848c0161187c565b8951908301610b7182848301858e0161187c565b010103601f198101835282611931565b519020808a52600760205260408a20549098906001600160a01b031661138b5760405192610bae846118fe565b60018060a01b038916845260208401928784528560408601528660608601528860808601524260a086015260a43560c086015260e08501526101008401526101208301528789526007602052604089209060018060a01b0360018060a01b03845116166001600160601b0360a01b8354161782555180519067ffffffffffffffff8211611125578190610c4460018501546119c4565b601f8111611339575b50602090601f83116001146112d0578c926112c5575b50508160011b916000199060031b1c19161760018201555b604082015180519067ffffffffffffffff8211611125578190610ca160028501546119c4565b601f8111611273575b50602090601f831160011461120a578c926111ff575b50508160011b916000199060031b1c19161760028201555b606082015180519067ffffffffffffffff8211611125578190610cfe60038501546119c4565b601f81116111ad575b50602090601f8311600114611144578c92611139575b50508160011b916000199060031b1c19161760038201555b608082015180519067ffffffffffffffff821161112557610d5960048401546119c4565b601f81116110e0575b50602090601f83116001146110745760089392918c9183611069575b50508160011b916000199060031b1c19161760048201555b60a0830151600582015560c0830151600682015560e0830151600782015501906001600160601b036101008201511682549161012060ff60601b910151151560601b16916cffffffffffffffffffffffffff1916171790555b60a435610fc1575b602096604051610e078982611931565b8181523315610f7e57610f5a7fd6eaf834342c777d70bc073ef973edeecb03e6d702efa419f5356a993825840694610f4c610f399560408c99968e610ef16105bb610f73998e610e75610e6f82600052600260205260018060a01b0360406000205416151590565b1561212a565b600081815260026020526040902054610e98906001600160a01b03161515610e6f565b3380875260038652878720805460010190558187526002865287872080546001600160a01b031916821790558190877fddf252ad1be2c89b69c2b068fc378daa952ba7f163c4a11628f55a4df523b3ef8180a433611fb7565b8b825260088152828220600181540190558b8252600981528282209060018060a01b03331683525220600160ff1982541617905560405196879660a0885260a088019061189f565b34878f015286810360408801529061189f565b90848203606086015261189f565b828103608084015233976001600160a01b03169661189f565b0390a4604051908152f35b6064896040519062461bcd60e51b825280600483015260248201527f4552433732313a206d696e7420746f20746865207a65726f20616464726573736044820152fd5b86612710610ff86001600160601b037f00000000000000000000000000000000000000000000000000000000000000001634611b42565b048180823414611060575b81908190819034869003906001600160a01b038d1690f11561105357600654829182918291906001600160a01b031682821561104a575bf1610df7576040513d88823e3d90fd5b506108fc61103a565b50604051903d90823e3d90fd5b506108fc611003565b015190503880610d7e565b600484018c52818c209190601f1984168d5b8181106110c857509160019391856008979694106110af575b505050811b016004820155610d96565b015160001960f88460031b161c1916905538808061109f565b92936020600181928786015181550195019301611086565b600484018c5260208c20601f840160051c81016020851061111e575b8d601f840160051c8301821061111457505050610d62565b81556001016110fc565b50806110fc565b634e487b7160e01b8b52604160045260248bfd5b015190503880610d1d565b600385018d52818d209250601f1984168d5b818110611195575090846001959493921061117c575b505050811b016003820155610d35565b015160001960f88460031b161c1916905538808061116c565b92936020600181928786015181550195019301611156565b909150600384018c5260208c20601f840160051c8101602085106111f8575b84939291908e5b601f840160051c830182106111ea57505050610d07565b81558594506001018e6111d3565b50806111cc565b015190503880610cc0565b600285018d52818d209250601f1984168d5b81811061125b5750908460019594939210611242575b505050811b016002820155610cd8565b015160001960f88460031b161c19169055388080611232565b9293602060018192878601518155019501930161121c565b909150600284018c5260208c20601f840160051c8101602085106112be575b84939291908e5b601f840160051c830182106112b057505050610caa565b81558594506001018e611299565b5080611292565b015190503880610c63565b600185018d52818d209250601f1984168d5b8181106113215750908460019594939210611308575b505050811b016001820155610c7b565b015160001960f88460031b161c191690553880806112f8565b929360206001819287860151815501950193016112e2565b909150600184018c5260208c20601f840160051c810160208510611384575b84939291908e5b601f840160051c8301821061137657505050610c4d565b81558594506001018e61135f565b5080611358565b505050858752600760205260408720604051906113a7826118fe565b80546001600160a01b031682526113c0600182016119fe565b60208301526113d1600282016119fe565b60408301526113e2600382016119fe565b60608301526113f3600482016119fe565b6080830152600581015460a0830152600681015460c083015260ff610120600860078401549360e086019485520154936001600160601b038516610100820152019260601c16151582528789526008602052604089205490511115611490575115158061146f575b15610def57631bbdf5c560e31b8752600487fd5b50858752600960209081526040808920338a5290915287205460ff1661145b565b63c30436e960e01b8852600488fd5b63cd1c886760e01b8952600489fd5b63112e4ee960e21b8952600489fd5b6319dc46b960e31b8952600489fd5b63edd5eaad60e01b8952600489fd5b631f7dec5560e01b8952600489fd5b631ff3ed9d60e01b8952600489fd5b8880fd5b8780fd5b8580fd5b8380fd5b50346101f25760403660031901126101f257604061152b602435600435611b6b565b82516001600160a01b0390921682526020820152f35b50346101f2576105c0611553366118c4565b916115616105a68433611ce7565b611dba565b50346101f25760403660031901126101f257611580611866565b602435906001600160a01b0361159583611cc4565b6001600160a01b03909216911681811461169b5780331490811561167a575b501561160f5781835260046020526040832080546001600160a01b031916821790556001600160a01b036115e783611cc4565b167f8c5be1e5ebec7d5bd14f71427d1e84f3dd0314c0f7b2291e5b200ac8c7c3b9258480a480f35b60405162461bcd60e51b815260206004820152603d60248201527f4552433732313a20617070726f76652063616c6c6572206973206e6f7420746f60448201527f6b656e206f776e6572206f7220617070726f76656420666f7220616c6c0000006064820152608490fd5b84525060056020908152604080852033865290915283205460ff16386115b4565b60405162461bcd60e51b815260206004820152602160248201527f4552433732313a20617070726f76616c20746f2063757272656e74206f776e656044820152603960f91b6064820152608490fd5b50346101f25760203660031901126101f2576020610988600435611aa2565b50346101f257806003193601126101f257604051908080549061172b826119c4565b80855291600181169081156108265750600114611752576103b7846107b581860382611931565b80805260208120939250905b808210611777575090915081016020016107b5826107a5565b91926001816020925483858801015201910190929161175e565b50346101f25760403660031901126101f25760ff60406020926117b261184b565b6004358252600985528282206001600160a01b03909116825284522054604051911615158152f35b9050346118475760203660031901126118475760043563ffffffff60e01b811680910361069757602092506380ac58cd60e01b8114908115611836575b8115611825575b5015158152f35b6301ffc9a760e01b1490503861181e565b635b5e139f60e01b81149150611817565b5080fd5b602435906001600160a01b038216820361186157565b600080fd5b600435906001600160a01b038216820361186157565b60005b83811061188f5750506000910152565b818101518382015260200161187f565b906020916118b88151809281855285808601910161187c565b601f01601f1916010190565b6060906003190112611861576004356001600160a01b038116810361186157906024356001600160a01b0381168103611861579060443590565b610140810190811067ffffffffffffffff82111761191b57604052565b634e487b7160e01b600052604160045260246000fd5b90601f8019910116810190811067ffffffffffffffff82111761191b57604052565b67ffffffffffffffff811161191b57601f01601f191660200190565b92919261197b82611953565b916119896040519384611931565b829481845281830111611861578281602093846000960137010152565b9080601f83011215611861578160206119c19335910161196f565b90565b90600182811c921680156119f4575b60208310146119de57565b634e487b7160e01b600052602260045260246000fd5b91607f16916119d3565b9060405191826000825492611a12846119c4565b8084529360018116908115611a805750600114611a39575b50611a3792500383611931565b565b90506000929192526020600020906000915b818310611a64575050906020611a379282010138611a2a565b6020919350806001915483858901015201910190918492611a4b565b905060209250611a3794915060ff191682840152151560051b82010138611a2a565b600081815260026020526040902054611ac5906001600160a01b03161515611c78565b6000908152600460205260409020546001600160a01b031690565b15611ae757565b60405162461bcd60e51b815260206004820152602d60248201527f4552433732313a2063616c6c6572206973206e6f7420746f6b656e206f776e6560448201526c1c881bdc88185c1c1c9bdd9959609a1b6064820152608490fd5b81810292918115918404141715611b5557565b634e487b7160e01b600052601160045260246000fd5b6000818152600260205260409020549192916001600160a01b031615611c675760005260076020526040600020600860405191611ba7836118fe565b80546001600160a01b03168352611bc0600182016119fe565b6020840152611bd1600282016119fe565b6040840152611be2600382016119fe565b6060840152611bf3600482016119fe565b6080840152600581015460a0840152600681015460c0840152600781015460e084015201549060ff6001600160601b038316928361010084015260601c1615156101208201528115611c5b57516001600160a01b03169261271091611c5791611b42565b0490565b50509050600090600090565b63224a1b1160e11b60005260046000fd5b15611c7f57565b60405162461bcd60e51b815260206004820152601860248201527f4552433732313a20696e76616c696420746f6b656e20494400000000000000006044820152606490fd5b6000908152600260205260409020546001600160a01b03166119c1811515611c78565b906001600160a01b03611cf982611cc4565b6001600160a01b0390931692168281149291908315611d39575b508215611d1f57505090565b9091506001600160a01b0390611d3490611aa2565b161490565b909250600052600560205260406000208160005260205260ff604060002054169138611d13565b15611d6757565b60405162461bcd60e51b815260206004820152602560248201527f4552433732313a207472616e736665722066726f6d20696e636f72726563742060448201526437bbb732b960d91b6064820152608490fd5b90611ddb611dc784611cc4565b6001600160a01b0393841693168314611d60565b6001600160a01b0316908115611e9757611e07816001600160a01b03611e0086611cc4565b1614611d60565b82600052600460205260406000206001600160601b0360a01b8154169055806000526003602052604060002060001981540190558160005260036020526040600020600181540190558260005260026020526040600020826001600160601b0360a01b8254161790557fddf252ad1be2c89b69c2b068fc378daa952ba7f163c4a11628f55a4df523b3ef600080a4565b60405162461bcd60e51b8152602060048201526024808201527f4552433732313a207472616e7366657220746f20746865207a65726f206164646044820152637265737360e01b6064820152608490fd5b6006546001600160a01b03163303611efc57565b606460405162461bcd60e51b815260206004820152602060248201527f4f776e61626c653a2063616c6c6572206973206e6f7420746865206f776e65726044820152fd5b60809060208152603260208201527f4552433732313a207472616e7366657220746f206e6f6e20455243373231526560408201527131b2b4bb32b91034b6b83632b6b2b73a32b960711b60608201520190565b15611f9a57565b60405162461bcd60e51b815280611fb360048201611f40565b0390fd5b91823b156120c957611ffd926020926000604051809681958294630a85bd0160e11b8452336004850152846024850152604484015260806064840152608483019061189f565b03926001600160a01b03165af18091600091612086575b5090612070573d15612069573d61202a81611953565b906120386040519283611931565b81523d6000602083013e5b805190816120645760405162461bcd60e51b815280611fb360048201611f40565b602001fd5b6060612043565b6001600160e01b031916630a85bd0160e11b1490565b6020813d6020116120c1575b8161209f60209383611931565b810103126118475751906001600160e01b0319821682036101f2575038612014565b3d9150612092565b505050600190565b919290803b1561212157611ffd93600060209460405196879586948593630a85bd0160e11b855233600486015260018060a01b03166024850152604484015260806064840152608483019061189f565b50505050600190565b1561213157565b60405162461bcd60e51b815260206004820152601c60248201527f4552433732313a20746f6b656e20616c7265616479206d696e746564000000006044820152606490fdfea264697066735822122019a68ed813f30c404d1c8d62fae9ab80062876bc7b791d2094db0f8ccfa52e3564736f6c634300081c0033",
  "linkReferences": {},
  "deployedLinkReferences": {}
}