{
  "_format": "hh-sol-artifact-1",
  "contractName": "ArticleNFT",
  "sourceName": "contracts/ArticleNFT.sol",
  "abi": [
    {
      "inputs": [],
      "stateMutability": "nonpayable",
      "type": "constructor"
    },
    {
      "inputs": [],
      "name": "AlreadyMinted",
      "type": "error"
    },
    {
      "inputs": [],
      "name": "ArweaveIdEmpty",
      "type": "error"
    },
    {
      "inputs": [],
      "name": "ContentHashEmpty",
      "type": "error"
    },
    {
      "inputs": [],
      "name": "ExceedsMaxSupply",
      "type": "error"
    },
    {
      "inputs": [],
      "name": "InsufficientPayment",
      "type": "error"
    },
    {
      "inputs": [],
      "name": "MaxSupplyInvalid",
      "type": "error"
    },
    {
      "inputs": [],
      "name": "NameEmpty",
      "type": "error"
    },
    {
      "inputs": [],
      "name": "NoBalanceToWithdraw",
      "type": "error"
    },
    {
      "inputs": [],
      "name": "NotTokenOwner",
      "type": "error"
    },
    {
      "inputs": [],
      "name": "RoyaltyFeeTooHigh",
      "type": "error"
    },
    {
      "inputs": [],
      "name": "TokenNotExist",
      "type": "error"
    },
    {
      "anonymous": false,
      "inputs": [
        {
          "indexed": true,
          "internalType": "address",
          "name": "owner",
          "type": "address"
        },
        {
          "indexed": true,
          "internalType": "address",
          "name": "approved",
          "type": "address"
        },
        {
          "indexed": true,
          "internalType": "uint256",
          "name": "tokenId",
          "type": "uint256"
        }
      ],
      "name": "Approval",
      "type": "event"
    },
    {
      "anonymous": false,
      "inputs": [
        {
          "indexed": true,
          "internalType": "address",
          "name": "owner",
          "type": "address"
        },
        {
          "indexed": true,
          "internalType": "address",
          "name": "operator",
          "type": "address"
        },
        {
          "indexed": false,
          "internalType": "bool",
          "name": "approved",
          "type": "bool"
        }
      ],
      "name": "ApprovalForAll",
      "type": "event"
    },
    {
      "anonymous": false,
      "inputs": [
        {
          "indexed": true,
          "internalType": "uint256",
          "name": "tokenId",
          "type": "uint256"
        },
        {
          "indexed": true,
          "internalType": "address",
          "name": "author",
          "type": "address"
        },
        {
          "indexed": true,
          "internalType": "address",
          "name": "minter",
          "type": "address"
        },
        {
          "indexed": false,
          "internalType": "string",
          "name": "name",
          "type": "string"
        },
        {
          "indexed": false,
          "internalType": "uint256",
          "name": "price",
          "type": "uint256"
        },
        {
          "indexed": false,
          "internalType": "string",
          "name": "contentHash",
          "type": "string"
        },
        {
          "indexed": false,
          "internalType": "string",
          "name": "arweaveId",
          "type": "string"
        },
        {
          "indexed": false,
          "internalType": "string",
          "name": "version",
          "type": "string"
        }
      ],
      "name": "ArticleMinted",
      "type": "event"
    },
    {
      "anonymous": false,
      "inputs": [
        {
          "indexed": true,
          "internalType": "address",
          "name": "previousOwner",
          "type": "address"
        },
        {
          "indexed": true,
          "internalType": "address",
          "name": "newOwner",
          "type": "address"
        }
      ],
      "name": "OwnershipTransferred",
      "type": "event"
    },
    {
      "anonymous": false,
      "inputs": [
        {
          "indexed": true,
          "internalType": "address",
          "name": "from",
          "type": "address"
        },
        {
          "indexed": true,
          "internalType": "address",
          "name": "to",
          "type": "address"
        },
        {
          "indexed": true,
          "internalType": "uint256",
          "name": "tokenId",
          "type": "uint256"
        }
      ],
      "name": "Transfer",
      "type": "event"
    },
    {
      "inputs": [
        {
          "internalType": "address",
          "name": "to",
          "type": "address"
        },
        {
          "internalType": "uint256",
          "name": "tokenId",
          "type": "uint256"
        }
      ],
      "name": "approve",
      "outputs": [],
      "stateMutability": "nonpayable",
      "type": "function"
    },
    {
      "inputs": [
        {
          "internalType": "uint256",
          "name": "",
          "type": "uint256"
        }
      ],
      "name": "articles",
      "outputs": [
        {
          "internalType": "address",
          "name": "author",
          "type": "address"
        },
        {
          "internalType": "string",
          "name": "name",
          "type": "string"
        },
        {
          "internalType": "string",
          "name": "contentHash",
          "type": "string"
        },
        {
          "internalType": "string",
          "name": "arweaveId",
          "type": "string"
        },
        {
          "internalType": "string",
          "name": "version",
          "type": "string"
        },
        {
          "internalType": "uint32",
          "name": "timestamp",
          "type": "uint32"
        },
        {
          "internalType": "uint96",
          "name": "price",
          "type": "uint96"
        },
        {
          "internalType": "uint32",
          "name": "maxSupply",
          "type": "uint32"
        },
        {
          "internalType": "uint96",
          "name": "royaltyFee",
          "type": "uint96"
        },
        {
          "internalType": "bool",
          "name": "onePerAddress",
          "type": "bool"
        }
      ],
      "stateMutability": "view",
      "type": "function"
    },
    {
      "inputs": [
        {
          "internalType": "address",
          "name": "owner",
          "type": "address"
        }
      ],
      "name": "balanceOf",
      "outputs": [
        {
          "internalType": "uint256",
          "name": "",
          "type": "uint256"
        }
      ],
      "stateMutability": "view",
      "type": "function"
    },
    {
      "inputs": [
        {
          "internalType": "uint256",
          "name": "tokenId",
          "type": "uint256"
        }
      ],
      "name": "burnArticle",
      "outputs": [],
      "stateMutability": "nonpayable",
      "type": "function"
    },
    {
      "inputs": [
        {
          "internalType": "uint256",
          "name": "tokenId",
          "type": "uint256"
        }
      ],
      "name": "getApproved",
      "outputs": [
        {
          "internalType": "address",
          "name": "",
          "type": "address"
        }
      ],
      "stateMutability": "view",
      "type": "function"
    },
    {
      "inputs": [
        {
          "internalType": "uint256",
          "name": "articleId",
          "type": "uint256"
        }
      ],
      "name": "getArticle",
      "outputs": [
        {
          "internalType": "address",
          "name": "author",
          "type": "address"
        },
        {
          "internalType": "string",
          "name": "name",
          "type": "string"
        },
        {
          "internalType": "string",
          "name": "contentHash",
          "type": "string"
        },
        {
          "internalType": "string",
          "name": "arweaveId",
          "type": "string"
        },
        {
          "internalType": "string",
          "name": "version",
          "type": "string"
        },
        {
          "internalType": "uint256",
          "name": "timestamp",
          "type": "uint256"
        },
        {
          "internalType": "uint256",
          "name": "price",
          "type": "uint256"
        },
        {
          "internalType": "uint256",
          "name": "maxSupply",
          "type": "uint256"
        },
        {
          "internalType": "uint256",
          "name": "currentSupply",
          "type": "uint256"
        },
        {
          "internalType": "uint96",
          "name": "royaltyFee",
          "type": "uint96"
        },
        {
          "internalType": "bool",
          "name": "onePerAddress",
          "type": "bool"
        }
      ],
      "stateMutability": "view",
      "type": "function"
    },
    {
      "inputs": [
        {
          "internalType": "uint256",
          "name": "",
          "type": "uint256"
        },
        {
          "internalType": "address",
          "name": "",
          "type": "address"
        }
      ],
      "name": "hasMinted",
      "outputs": [
        {
          "internalType": "bool",
          "name": "",
          "type": "bool"
        }
      ],
      "stateMutability": "view",
      "type": "function"
    },
    {
      "inputs": [
        {
          "internalType": "address",
          "name": "owner",
          "type": "address"
        },
        {
          "internalType": "address",
          "name": "operator",
          "type": "address"
        }
      ],
      "name": "isApprovedForAll",
      "outputs": [
        {
          "internalType": "bool",
          "name": "",
          "type": "bool"
        }
      ],
      "stateMutability": "view",
      "type": "function"
    },
    {
      "inputs": [
        {
          "internalType": "address",
          "name": "author",
          "type": "address"
        },
        {
          "internalType": "string",
          "name": "name",
          "type": "string"
        },
        {
          "internalType": "string",
          "name": "contentHash",
          "type": "string"
        },
        {
          "internalType": "string",
          "name": "arweaveId",
          "type": "string"
        },
        {
          "internalType": "string",
          "name": "version",
          "type": "string"
        },
        {
          "internalType": "uint96",
          "name": "price",
          "type": "uint96"
        },
        {
          "internalType": "uint32",
          "name": "maxSupply",
          "type": "uint32"
        },
        {
          "internalType": "uint96",
          "name": "royaltyFee",
          "type": "uint96"
        },
        {
          "internalType": "bool",
          "name": "onePerAddress",
          "type": "bool"
        }
      ],
      "name": "mintArticle",
      "outputs": [
        {
          "internalType": "uint256",
          "name": "",
          "type": "uint256"
        }
      ],
      "stateMutability": "payable",
      "type": "function"
    },
    {
      "inputs": [
        {
          "internalType": "uint256",
          "name": "",
          "type": "uint256"
        }
      ],
      "name": "mintedCount",
      "outputs": [
        {
          "internalType": "uint32",
          "name": "",
          "type": "uint32"
        }
      ],
      "stateMutability": "view",
      "type": "function"
    },
    {
      "inputs": [],
      "name": "name",
      "outputs": [
        {
          "internalType": "string",
          "name": "",
          "type": "string"
        }
      ],
      "stateMutability": "view",
      "type": "function"
    },
    {
      "inputs": [],
      "name": "owner",
      "outputs": [
        {
          "internalType": "address",
          "name": "",
          "type": "address"
        }
      ],
      "stateMutability": "view",
      "type": "function"
    },
    {
      "inputs": [
        {
          "internalType": "uint256",
          "name": "tokenId",
          "type": "uint256"
        }
      ],
      "name": "ownerOf",
      "outputs": [
        {
          "internalType": "address",
          "name": "",
          "type": "address"
        }
      ],
      "stateMutability": "view",
      "type": "function"
    },
    {
      "inputs": [],
      "name": "renounceOwnership",
      "outputs": [],
      "stateMutability": "nonpayable",
      "type": "function"
    },
    {
      "inputs": [
        {
          "internalType": "uint256",
          "name": "tokenId",
          "type": "uint256"
        },
        {
          "internalType": "uint256",
          "name": "salePrice",
          "type": "uint256"
        }
      ],
      "name": "royaltyInfo",
      "outputs": [
        {
          "internalType": "address",
          "name": "receiver",
          "type": "address"
        },
        {
          "internalType": "uint256",
          "name": "royaltyAmount",
          "type": "uint256"
        }
      ],
      "stateMutability": "view",
      "type": "function"
    },
    {
      "inputs": [
        {
          "internalType": "address",
          "name": "from",
          "type": "address"
        },
        {
          "internalType": "address",
          "name": "to",
          "type": "address"
        },
        {
          "internalType": "uint256",
          "name": "tokenId",
          "type": "uint256"
        }
      ],
      "name": "safeTransferFrom",
      "outputs": [],
      "stateMutability": "nonpayable",
      "type": "function"
    },
    {
      "inputs": [
        {
          "internalType": "address",
          "name": "from",
          "type": "address"
        },
        {
          "internalType": "address",
          "name": "to",
          "type": "address"
        },
        {
          "internalType": "uint256",
          "name": "tokenId",
          "type": "uint256"
        },
        {
          "internalType": "bytes",
          "name": "data",
          "type": "bytes"
        }
      ],
      "name": "safeTransferFrom",
      "outputs": [],
      "stateMutability": "nonpayable",
      "type": "function"
    },
    {
      "inputs": [
        {
          "internalType": "address",
          "name": "operator",
          "type": "address"
        },
        {
          "internalType": "bool",
          "name": "approved",
          "type": "bool"
        }
      ],
      "name": "setApprovalForAll",
      "outputs": [],
      "stateMutability": "nonpayable",
      "type": "function"
    },
    {
      "inputs": [
        {
          "internalType": "bytes4",
          "name": "interfaceId",
          "type": "bytes4"
        }
      ],
      "name": "supportsInterface",
      "outputs": [
        {
          "internalType": "bool",
          "name": "",
          "type": "bool"
        }
      ],
      "stateMutability": "view",
      "type": "function"
    },
    {
      "inputs": [],
      "name": "symbol",
      "outputs": [
        {
          "internalType": "string",
          "name": "",
          "type": "string"
        }
      ],
      "stateMutability": "view",
      "type": "function"
    },
    {
      "inputs": [
        {
          "internalType": "uint256",
          "name": "tokenId",
          "type": "uint256"
        }
      ],
      "name": "tokenURI",
      "outputs": [
        {
          "internalType": "string",
          "name": "",
          "type": "string"
        }
      ],
      "stateMutability": "view",
      "type": "function"
    },
    {
      "inputs": [
        {
          "internalType": "address",
          "name": "from",
          "type": "address"
        },
        {
          "internalType": "address",
          "name": "to",
          "type": "address"
        },
        {
          "internalType": "uint256",
          "name": "tokenId",
          "type": "uint256"
        }
      ],
      "name": "transferFrom",
      "outputs": [],
      "stateMutability": "nonpayable",
      "type": "function"
    },
    {
      "inputs": [
        {
          "internalType": "address",
          "name": "newOwner",
          "type": "address"
        }
      ],
      "name": "transferOwnership",
      "outputs": [],
      "stateMutability": "nonpayable",
      "type": "function"
    },
    {
      "inputs": [],
      "name": "withdraw",
      "outputs": [],
      "stateMutability": "nonpayable",
      "type": "function"
    }
  ],
  "bytecode": "0x60806040523461036c57604080519081016001600160401b03811182821017610279576040908152600b82526a105c9d1a58db194813919560aa1b602083015280519081016001600160401b038111828210176102795760405260048152631053919560e21b602082015281516001600160401b03811161027957600054600181811c91168015610362575b602082101461025957601f81116102fe575b50602092601f821160011461029a579281929360009261028f575b50508160011b916000199060031b1c1916176000555b80516001600160401b03811161027957600154600181811c9116801561026f575b602082101461025957601f81116101f4575b50602091601f821160011461019057918192600092610185575b50508160011b916000199060031b1c1916176001555b60068054336001600160a01b03198216811790925560405191906001600160a01b03167f8be0079c531659141344cd1fd0a4f28419497f9722a3daafe3b4186f6b6457e0600080a361240a90816103728239f35b01519050388061011b565b601f198216926001600052806000209160005b8581106101dc575083600195106101c3575b505050811b01600155610131565b015160001960f88460031b161c191690553880806101b5565b919260206001819286850151815501940192016101a3565b60016000527fb10e2d527612073b26eecdfd717e6a320cf44b4afac2b0732d9fcbe2b7fa0cf6601f830160051c8101916020841061024f575b601f0160051c01905b8181106102435750610101565b60008155600101610236565b909150819061022d565b634e487b7160e01b600052602260045260246000fd5b90607f16906100ef565b634e487b7160e01b600052604160045260246000fd5b0151905038806100b8565b601f1982169360008052806000209160005b8681106102e657508360019596106102cd575b505050811b016000556100ce565b015160001960f88460031b161c191690553880806102bf565b919260206001819286850151815501940192016102ac565b600080527f290decd9548b62a8d60345a988386fc84ba6bc95484008f6362f93160ef3e563601f830160051c81019160208410610358575b601f0160051c01905b81811061034c575061009d565b6000815560010161033f565b9091508190610336565b90607f169061008b565b600080fdfe61012080604052600436101561001457600080fd5b60006080526080513560e01c90816301ffc9a714611a105750806303780733146119bb57806306fdde031461192c578063081812fc1461190e578063095ea7b31461177557806323b872dd146117515780632a55205a1461171a5780633ccfd60b146116c257806342842e0e1461168a5780635e354332146116565780636352211e1461162657806370a082311461158d578063715018a61461152a57806371fd1871146108c25780638da5cb5b1461089857806395d89b41146107cc5780639d633360146106e1578063a22cb465146105fa578063b88d4fde1461056f578063bd85d867146103d8578063c87b56dd14610360578063e985e9c514610303578063edcfafe6146102005763f2fde38b1461012e57600080fd5b346101fa5760203660031901126101fa57610147611a96565b61014f61213f565b6001600160a01b031680156101a657600680546001600160a01b0319811683179091556001600160a01b03167f8be0079c531659141344cd1fd0a4f28419497f9722a3daafe3b4186f6b6457e0600080a360805180f35b60405162461bcd60e51b815260206004820152602660248201527f4f776e61626c653a206e6577206f776e657220697320746865207a65726f206160448201526564647265737360d01b6064820152608490fd5b60805180fd5b346101fa5760203660031901126101fa576080805160043590526007602052516040902080546001600160a01b031661023b60018301611c33565b9161024860028201611c33565b6102c061025760038401611c33565b6102b261026660048601611c33565b916102a460ff6006600589015498015416956102966040519a8b9a8b5261014060208c01526101408b0190611aac565b9089820360408b0152611aac565b908782036060890152611aac565b908582036080870152611aac565b9163ffffffff811660a08501526001600160601b038160201c1660c085015263ffffffff8160801c1660e085015260a01c61010084015215156101208301520390f35b346101fa5760403660031901126101fa5761031c611a96565b610324611a7b565b9060018060a01b03166080515260056020526040608051209060018060a01b0316600052602052602060ff604060002054166040519015158152f35b346101fa5760203660031901126101fa57600435600090815260026020526040902054610397906001600160a01b03161515611eab565b6040516103a5602082611b86565b60805190526040516103d4906103bc602082611b86565b60008152604051918291602083526020830190611aac565b0390f35b346101fa5760203660031901126101fa576004358060805152600760205260805160409020906040519161040b83611b54565b80546001600160a01b0316835261042460018201611c33565b602084019081529161043860028301611c33565b604085019081529361044c60038401611c33565b606082019081529161046060048501611c33565b9384608084015260058101549163ffffffff8316958660a08601528360201c6001600160601b0316918260c08701528460801c63ffffffff16938460e088015261010087019560a01c86526006015460ff169561012081019615158752600160a01b6001900390511698519951965190608051526008602052608051604090205463ffffffff1694516001600160601b031695511515966040519a8b9a8b5260208b0161016090526101608b0161051691611aac565b8a810360408c015261052791611aac565b89810360608b015261053891611aac565b88810360808a015261054991611aac565b9560a088015260c087015260e08601526101008501526101208401526101408301520390f35b346101fa5760803660031901126101fa57610588611a96565b610590611a7b565b90606435906044356001600160401b0383116101fa57366023840112156101fa576105f4936105cc6105ef943690602481600401359101611bc2565b926105df6105da8433611f3e565b611d15565b6105ea838383612011565b61232f565b6121ea565b60805180f35b346101fa5760403660031901126101fa57610613611a96565b60243590811515908183036101fa576001600160a01b03169133831461069c5761066a90336080515260056020526040608051206080515084608051526020526040608051209060ff801983541691151516179055565b6040519081527f17307eab39ab6107e8899845ad3d59bd9653f200f220920489ca2b5937696c3160203392a360805180f35b60405162461bcd60e51b815260206004820152601960248201527f4552433732313a20617070726f766520746f2063616c6c6572000000000000006044820152606490fd5b346101fa5760203660031901126101fa576004358060805152600260205260018060a01b03604060805120541633036107b95761071d81611ef7565b5061072781611ef7565b816080515260046020526040608051206001600160601b0360a01b815416905560018060a01b0316806080515260036020526040608051206000198154019055816080515260026020526040608051206001600160601b0360a01b8154169055608051907fddf252ad1be2c89b69c2b068fc378daa952ba7f163c4a11628f55a4df523b3ef608051608051a460805180f35b6359dc379f60e01b608051526004608051fd5b346101fa576080513660031901126101fa57608051506040516080516001546107f481611bf9565b80845290600181169081156108745750600114610830575b6103d48361081c81850382611b86565b604051918291602083526020830190611aac565b60808051600190525160208120939250905b80821061085a5750909150810160200161081c61080c565b919260018160209254838588010152019101909291610842565b60ff191660208086019190915291151560051b8401909101915061081c905061080c565b346101fa576080513660031901126101fa576006546040516001600160a01b039091168152602090f35b6101203660031901126101fa576108d7611a96565b60e0526024356001600160401b0381116101fa576108f9903690600401611b27565b90610100526044356001600160401b0381116101fa5761091d903690600401611b27565b91906064356001600160401b0381116101fa5761093e903690600401611b27565b6084356001600160401b0381116101fa5761095d903690600401611b27565b60a0919091529260a4356001600160601b03811681036101fa5760c43563ffffffff811681036101fa5760e4356001600160601b03811681036101fa576101043580151581036101fa5788156115175789156115045785156114f15763ffffffff8316156114de576127106001600160601b038316116114cb576001600160601b03841634106114b857899289926040518588602083013760e05160601b6bffffffffffffffffffffffff19168187016020810191909152819003601481018252610a2b9060340182611b86565b6020815191012060c05260c05160805152600760205260018060a01b036040608051205416156000146113645763ffffffff6001600160601b0392610aa3610a9360405197610a7989611b54565b60e0516001600160a01b0316895261010051369190611bc2565b976020880198895236908b611bc2565b6040870152610ab3368b8d611bc2565b6060870152610ac5368d60a051611bc2565b608087015281421660a087015283881660c08701521660e085015216610100830152151561012082015260c0516080515260076020526040608051209160018060a01b0360018060a01b03835116166001600160601b0360a01b845416178355518051906001600160401b0382116110df578190610b466001860154611bf9565b601f811161130e575b506020906001601f8411146112a05760805192611295575b50508160011b916000199060031b1c19161760018301555b60408101518051906001600160401b0382116110df578190610ba46002860154611bf9565b601f811161123f575b506020906001601f8411146111d157608051926111c6575b50508160011b916000199060031b1c19161760028301555b60608101518051906001600160401b0382116110df578190610c026003860154611bf9565b601f8111611170575b506020906001601f84111461110257608051926110f7575b50508160011b916000199060031b1c19161760038301555b60808101518051906001600160401b0382116110df57610c5e6004850154611bf9565b601f8111611095575b506020906001601f84111461101257610d2b93836001600160601b039796946006946101209460805192611007575b50508160011b916000199060031b1c19161760048501555b6005840163ffffffff8060a0840151161663ffffffff1982541617815560c0820151815463ffffffff60801b60e085015160801b169063ffffffff6fffffffffffffffffffffffff000000008c60a01b61010088015160a01b169460201b16911617171790550151151591019060ff801983541691151516179055565b16610f5a575b60405160209690610d428882611b86565b60805181523315610f175791610eb491610e276105ef610ec2979695610d88610d8260c051600052600260205260018060a01b0360406000205416151590565b15612388565b60c051600090815260026020526040902054610dae906001600160a01b03161515610d82565b336080515260038c526040608051206001815401905560c0516080515260028c5260406080512060018060a01b0333166001600160601b0360a01b82541617905560c051336080517fddf252ad1be2c89b69c2b068fc378daa952ba7f163c4a11628f55a4df523b3ef608051608051a460c0513361220e565b60c051608051526008895260406080512063ffffffff8060018184541601161663ffffffff1982541617905560c05160805152600989526040608051206080515060018060a01b033316608051528952604060805120600160ff19825416179055610ea16040519860a08a5260a08a019061010051611f1d565b91348a8a015288830360408a0152611f1d565b918583036060870152611f1d565b9082820360808401527fd6eaf834342c777d70bc073ef973edeecb03e6d702efa419f5356a9938258406339380610f0a60018060a01b0360e051169560c0519560a051611f1d565b0390a460405160c0518152f35b6064886040519062461bcd60e51b825280600483015260248201527f4552433732313a206d696e7420746f20746865207a65726f20616464726573736044820152fd5b608051506103e834023481046103e81434151715610fef576127109004608051813414610fe6575b60805160e051909182918291829134879003916001600160a01b0390911690f115610fcf5760065460805191906001600160a01b03168115610fdc575b60805192839283928392f1610d31575b6040513d608051823e3d90fd5b6108fc9250610fbf565b506108fc610f82565b634e487b7160e01b6080515260116004526024608051fd5b015190508f80610c96565b90601f1983169160048601608051528160805120926080515b81811061107d57508460069461012094610d2b98946001600160601b039b9a9860019510611064575b505050811b016004850155610cae565b015160001960f88460031b161c191690558f8080611054565b9293602060018192878601518155019501930161102b565b6004850160805152602060805120601f840160051c8101602085106110d8575b601f830160051c820181106110cb575050610c67565b60805181556001016110b5565b50806110b5565b634e487b7160e01b6080515260416004526024608051fd5b015190508b80610c23565b60808051600388019052518281209350601f198516905b818110611158575090846001959493921061113f575b505050811b016003830155610c3b565b015160001960f88460031b161c191690558b808061112f565b92936020600181928786015181550195019301611119565b9091506003850160805152602060805120601f840160051c8101602085106111bf575b90849392915b601f830160051c820181106111af575050610c0b565b6080518155859450600101611199565b5080611193565b015190508b80610bc5565b60808051600288019052518281209350601f198516905b818110611227575090846001959493921061120e575b505050811b016002830155610bdd565b015160001960f88460031b161c191690558b80806111fe565b929360206001819287860151815501950193016111e8565b9091506002850160805152602060805120601f840160051c81016020851061128e575b90849392915b601f830160051c8201811061127e575050610bad565b6080518155859450600101611268565b5080611262565b015190508b80610b67565b60808051600188019052518281209350601f198516905b8181106112f657509084600195949392106112dd575b505050811b016001830155610b7f565b015160001960f88460031b161c191690558b80806112cd565b929360206001819287860151815501950193016112b7565b9091506001850160805152602060805120601f840160051c81016020851061135d575b90849392915b601f830160051c8201811061134d575050610b4f565b6080518155859450600101611337565b5080611331565b505050505060c0516080515260076020526040608051206040519061138882611b54565b80546001600160a01b031682526113a160018201611c33565b60208301526113b260028201611c33565b60408301526113c360038201611c33565b60608301526113d460048201611c33565b608083015261012060ff600660058401549363ffffffff851660a08701526001600160601b038560201c1660c087015260e086019463ffffffff8160801c16865260a01c6101008701520154169201911515825260c05160805152600860205263ffffffff80604060805120541691511611156114a55751151580611479575b611466576001600160601b0390610d2b565b631bbdf5c560e31b608051526004608051fd5b5060c051608080519190915260096020908152815160408082203390925291529051205460ff16611454565b63c30436e960e01b608051526004608051fd5b63cd1c886760e01b608051526004608051fd5b63112e4ee960e21b608051526004608051fd5b6319dc46b960e31b608051526004608051fd5b63edd5eaad60e01b608051526004608051fd5b631f7dec5560e01b608051526004608051fd5b631ff3ed9d60e01b608051526004608051fd5b346101fa576080513660031901126101fa5761154461213f565b600680546001600160a01b03198116909155608051906001600160a01b03167f8be0079c531659141344cd1fd0a4f28419497f9722a3daafe3b4186f6b6457e08280a360805180f35b346101fa5760203660031901126101fa576001600160a01b036115ae611a96565b1680156115cf57608051526003602052602060406080512054604051908152f35b60405162461bcd60e51b815260206004820152602960248201527f4552433732313a2061646472657373207a65726f206973206e6f7420612076616044820152683634b21037bbb732b960b91b6064820152608490fd5b346101fa5760203660031901126101fa576020611644600435611ef7565b6040516001600160a01b039091168152f35b346101fa5760203660031901126101fa57600435608051526008602052602063ffffffff6040608051205416604051908152f35b346101fa576105f46105ef61169e36611aed565b604051929091906116b0602085611b86565b60805184526105df6105da8433611f3e565b346101fa576080513660031901126101fa576116dc61213f565b4780156117075760805160065490918291829182916001600160a01b031682f115610fcf5760805180f35b63177b02e160e31b608051526004608051fd5b346101fa5760403660031901126101fa57604061173b602435600435611d77565b82516001600160a01b0390921682526020820152f35b346101fa576105f461176236611aed565b916117706105da8433611f3e565b612011565b346101fa5760403660031901126101fa5761178e611a96565b602435906001600160a01b036117a383611ef7565b6001600160a01b0390921691168181146118bf57803314908115611894575b501561182957608080518390526004602052516040902080546001600160a01b031916821790556001600160a01b036117fa83611ef7565b167f8c5be1e5ebec7d5bd14f71427d1e84f3dd0314c0f7b2291e5b200ac8c7c3b925608051608051a460805180f35b60405162461bcd60e51b815260206004820152603d60248201527f4552433732313a20617070726f76652063616c6c6572206973206e6f7420746f60448201527f6b656e206f776e6572206f7220617070726f76656420666f7220616c6c0000006064820152608490fd5b608080519190915260056020908152815160408082203390925291529051205460ff169050836117c2565b60405162461bcd60e51b815260206004820152602160248201527f4552433732313a20617070726f76616c20746f2063757272656e74206f776e656044820152603960f91b6064820152608490fd5b346101fa5760203660031901126101fa576020611644600435611cd7565b346101fa576080513660031901126101fa57608051604051815490919061195281611bf9565b80845290600181169081156108745750600114611979576103d48361081c81850382611b86565b6080805180525160208120939250905b8082106119a15750909150810160200161081c61080c565b919260018160209254838588010152019101909291611989565b346101fa5760403660031901126101fa576119d4611a7b565b600435608051526009602052604060805120906080515060018060a01b031660805152602052602060ff60406080512054166040519015158152f35b346101fa5760203660031901126101fa576004359063ffffffff60e01b82168092036101fa576020916380ac58cd60e01b8114908115611a6a575b8115611a59575b5015158152f35b6301ffc9a760e01b14905083611a52565b635b5e139f60e01b81149150611a4b565b602435906001600160a01b0382168203611a9157565b600080fd5b600435906001600160a01b0382168203611a9157565b919082519283825260005b848110611ad8575050826000602080949584010152601f8019910116010190565b80602080928401015182828601015201611ab7565b6060906003190112611a91576004356001600160a01b0381168103611a9157906024356001600160a01b0381168103611a91579060443590565b9181601f84011215611a91578235916001600160401b038311611a915760208381860195010111611a9157565b61014081019081106001600160401b03821117611b7057604052565b634e487b7160e01b600052604160045260246000fd5b90601f801991011681019081106001600160401b03821117611b7057604052565b6001600160401b038111611b7057601f01601f191660200190565b929192611bce82611ba7565b91611bdc6040519384611b86565b829481845281830111611a91578281602093846000960137010152565b90600182811c92168015611c29575b6020831014611c1357565b634e487b7160e01b600052602260045260246000fd5b91607f1691611c08565b9060405191826000825492611c4784611bf9565b8084529360018116908115611cb55750600114611c6e575b50611c6c92500383611b86565b565b90506000929192526020600020906000915b818310611c99575050906020611c6c9282010138611c5f565b6020919350806001915483858901015201910190918492611c80565b905060209250611c6c94915060ff191682840152151560051b82010138611c5f565b600081815260026020526040902054611cfa906001600160a01b03161515611eab565b6000908152600460205260409020546001600160a01b031690565b15611d1c57565b60405162461bcd60e51b815260206004820152602d60248201527f4552433732313a2063616c6c6572206973206e6f7420746f6b656e206f776e6560448201526c1c881bdc88185c1c1c9bdd9959609a1b6064820152608490fd5b6000818152600260205260409020549192916001600160a01b031615611e9a576000526007602052604060002091604051611db181611b54565b83546001600160a01b03168152611dca60018501611c33565b6020820152611ddb60028501611c33565b6040820152611dec60038501611c33565b6060820152611dfd60048501611c33565b608082015260ff6006600586015463ffffffff811660a08501526001600160601b038160201c1660c085015263ffffffff8160801c1660e085015260a01c958661010085015201541615156101208201528315611e8e5760018060a01b0390511690838102938185041490151715611e785761271090920490565b634e487b7160e01b600052601160045260246000fd5b50509050600090600090565b63224a1b1160e11b60005260046000fd5b15611eb257565b60405162461bcd60e51b815260206004820152601860248201527f4552433732313a20696e76616c696420746f6b656e20494400000000000000006044820152606490fd5b6000908152600260205260409020546001600160a01b0316611f1a811515611eab565b90565b908060209392818452848401376000828201840152601f01601f1916010190565b906001600160a01b03611f5082611ef7565b6001600160a01b0390931692168281149291908315611f90575b508215611f7657505090565b9091506001600160a01b0390611f8b90611cd7565b161490565b909250600052600560205260406000208160005260205260ff604060002054169138611f6a565b15611fbe57565b60405162461bcd60e51b815260206004820152602560248201527f4552433732313a207472616e736665722066726f6d20696e636f72726563742060448201526437bbb732b960d91b6064820152608490fd5b9061203261201e84611ef7565b6001600160a01b0393841693168314611fb7565b6001600160a01b03169081156120ee5761205e816001600160a01b0361205786611ef7565b1614611fb7565b82600052600460205260406000206001600160601b0360a01b8154169055806000526003602052604060002060001981540190558160005260036020526040600020600181540190558260005260026020526040600020826001600160601b0360a01b8254161790557fddf252ad1be2c89b69c2b068fc378daa952ba7f163c4a11628f55a4df523b3ef600080a4565b60405162461bcd60e51b8152602060048201526024808201527f4552433732313a207472616e7366657220746f20746865207a65726f206164646044820152637265737360e01b6064820152608490fd5b6006546001600160a01b0316330361215357565b606460405162461bcd60e51b815260206004820152602060248201527f4f776e61626c653a2063616c6c6572206973206e6f7420746865206f776e65726044820152fd5b60809060208152603260208201527f4552433732313a207472616e7366657220746f206e6f6e20455243373231526560408201527131b2b4bb32b91034b6b83632b6b2b73a32b960711b60608201520190565b156121f157565b60405162461bcd60e51b81528061220a60048201612197565b0390fd5b91823b1561232757612254926020926000604051809681958294630a85bd0160e11b84523360048501528460248501526044840152608060648401526084830190611aac565b03926001600160a01b03165af180916000916122dd575b50906122c7573d156122c0573d61228181611ba7565b9061228f6040519283611b86565b81523d6000602083013e5b805190816122bb5760405162461bcd60e51b81528061220a60048201612197565b602001fd5b606061229a565b6001600160e01b031916630a85bd0160e11b1490565b6020813d60201161231f575b816122f660209383611b86565b8101031261231b5751906001600160e01b03198216820361231857503861226b565b80fd5b5080fd5b3d91506122e9565b505050600190565b919290803b1561237f5761225493600060209460405196879586948593630a85bd0160e11b855233600486015260018060a01b031660248501526044840152608060648401526084830190611aac565b50505050600190565b1561238f57565b60405162461bcd60e51b815260206004820152601c60248201527f4552433732313a20746f6b656e20616c7265616479206d696e746564000000006044820152606490fdfea26469706673582212203ee3e75d90e0b833e4faef667136b2c457a2a3bde490a0b7e541712956aefe9364736f6c634300081c0033",
  "linkReferences": {},
  "deployedLinkReferences": {}
}