{
  "_format": "hh-sol-artifact-1",
  "contractName": "ArticleNFT",
  "sourceName": "contracts/ArticleNFT.sol",
  "abi": [
    {
      "inputs": [],
      "stateMutability": "nonpayable",
      "type": "constructor"
    },
    {
      "inputs": [],
      "name": "AlreadyMinted",
      "type": "error"
    },
    {
      "inputs": [],
      "name": "ArweaveIdEmpty",
      "type": "error"
    },
    {
      "inputs": [],
      "name": "ContentHashEmpty",
      "type": "error"
    },
    {
      "inputs": [],
      "name": "ExceedsMaxSupply",
      "type": "error"
    },
    {
      "inputs": [],
      "name": "InsufficientPayment",
      "type": "error"
    },
    {
      "inputs": [],
      "name": "MaxSupplyInvalid",
      "type": "error"
    },
    {
      "inputs": [],
      "name": "NameEmpty",
      "type": "error"
    },
    {
      "inputs": [],
      "name": "NoBalanceToWithdraw",
      "type": "error"
    },
    {
      "inputs": [],
      "name": "RoyaltyFeeTooHigh",
      "type": "error"
    },
    {
      "inputs": [],
      "name": "TokenNotExist",
      "type": "error"
    },
    {
      "anonymous": false,
      "inputs": [
        {
          "indexed": true,
          "internalType": "address",
          "name": "owner",
          "type": "address"
        },
        {
          "indexed": true,
          "internalType": "address",
          "name": "approved",
          "type": "address"
        },
        {
          "indexed": true,
          "internalType": "uint256",
          "name": "tokenId",
          "type": "uint256"
        }
      ],
      "name": "Approval",
      "type": "event"
    },
    {
      "anonymous": false,
      "inputs": [
        {
          "indexed": true,
          "internalType": "address",
          "name": "owner",
          "type": "address"
        },
        {
          "indexed": true,
          "internalType": "address",
          "name": "operator",
          "type": "address"
        },
        {
          "indexed": false,
          "internalType": "bool",
          "name": "approved",
          "type": "bool"
        }
      ],
      "name": "ApprovalForAll",
      "type": "event"
    },
    {
      "anonymous": false,
      "inputs": [
        {
          "indexed": true,
          "internalType": "uint256",
          "name": "tokenId",
          "type": "uint256"
        },
        {
          "indexed": true,
          "internalType": "address",
          "name": "author",
          "type": "address"
        },
        {
          "indexed": true,
          "internalType": "address",
          "name": "minter",
          "type": "address"
        },
        {
          "indexed": false,
          "internalType": "string",
          "name": "name",
          "type": "string"
        },
        {
          "indexed": false,
          "internalType": "uint256",
          "name": "price",
          "type": "uint256"
        },
        {
          "indexed": false,
          "internalType": "string",
          "name": "contentHash",
          "type": "string"
        },
        {
          "indexed": false,
          "internalType": "string",
          "name": "arweaveId",
          "type": "string"
        },
        {
          "indexed": false,
          "internalType": "string",
          "name": "version",
          "type": "string"
        }
      ],
      "name": "ArticleMinted",
      "type": "event"
    },
    {
      "anonymous": false,
      "inputs": [
        {
          "indexed": true,
          "internalType": "address",
          "name": "previousOwner",
          "type": "address"
        },
        {
          "indexed": true,
          "internalType": "address",
          "name": "newOwner",
          "type": "address"
        }
      ],
      "name": "OwnershipTransferred",
      "type": "event"
    },
    {
      "anonymous": false,
      "inputs": [
        {
          "indexed": true,
          "internalType": "address",
          "name": "from",
          "type": "address"
        },
        {
          "indexed": true,
          "internalType": "address",
          "name": "to",
          "type": "address"
        },
        {
          "indexed": true,
          "internalType": "uint256",
          "name": "tokenId",
          "type": "uint256"
        }
      ],
      "name": "Transfer",
      "type": "event"
    },
    {
      "inputs": [
        {
          "internalType": "address",
          "name": "to",
          "type": "address"
        },
        {
          "internalType": "uint256",
          "name": "tokenId",
          "type": "uint256"
        }
      ],
      "name": "approve",
      "outputs": [],
      "stateMutability": "nonpayable",
      "type": "function"
    },
    {
      "inputs": [
        {
          "internalType": "uint256",
          "name": "",
          "type": "uint256"
        }
      ],
      "name": "articles",
      "outputs": [
        {
          "internalType": "address",
          "name": "author",
          "type": "address"
        },
        {
          "internalType": "string",
          "name": "name",
          "type": "string"
        },
        {
          "internalType": "string",
          "name": "contentHash",
          "type": "string"
        },
        {
          "internalType": "string",
          "name": "arweaveId",
          "type": "string"
        },
        {
          "internalType": "string",
          "name": "version",
          "type": "string"
        },
        {
          "internalType": "uint256",
          "name": "timestamp",
          "type": "uint256"
        },
        {
          "internalType": "uint256",
          "name": "price",
          "type": "uint256"
        },
        {
          "internalType": "uint256",
          "name": "maxSupply",
          "type": "uint256"
        },
        {
          "internalType": "uint96",
          "name": "royaltyFee",
          "type": "uint96"
        },
        {
          "internalType": "bool",
          "name": "onePerAddress",
          "type": "bool"
        }
      ],
      "stateMutability": "view",
      "type": "function"
    },
    {
      "inputs": [
        {
          "internalType": "address",
          "name": "owner",
          "type": "address"
        }
      ],
      "name": "balanceOf",
      "outputs": [
        {
          "internalType": "uint256",
          "name": "",
          "type": "uint256"
        }
      ],
      "stateMutability": "view",
      "type": "function"
    },
    {
      "inputs": [
        {
          "internalType": "uint256",
          "name": "tokenId",
          "type": "uint256"
        }
      ],
      "name": "getApproved",
      "outputs": [
        {
          "internalType": "address",
          "name": "",
          "type": "address"
        }
      ],
      "stateMutability": "view",
      "type": "function"
    },
    {
      "inputs": [
        {
          "internalType": "uint256",
          "name": "articleId",
          "type": "uint256"
        }
      ],
      "name": "getArticle",
      "outputs": [
        {
          "internalType": "address",
          "name": "author",
          "type": "address"
        },
        {
          "internalType": "string",
          "name": "name",
          "type": "string"
        },
        {
          "internalType": "string",
          "name": "contentHash",
          "type": "string"
        },
        {
          "internalType": "string",
          "name": "arweaveId",
          "type": "string"
        },
        {
          "internalType": "string",
          "name": "version",
          "type": "string"
        },
        {
          "internalType": "uint256",
          "name": "timestamp",
          "type": "uint256"
        },
        {
          "internalType": "uint256",
          "name": "price",
          "type": "uint256"
        },
        {
          "internalType": "uint256",
          "name": "maxSupply",
          "type": "uint256"
        },
        {
          "internalType": "uint256",
          "name": "currentSupply",
          "type": "uint256"
        },
        {
          "internalType": "uint96",
          "name": "royaltyFee",
          "type": "uint96"
        },
        {
          "internalType": "bool",
          "name": "onePerAddress",
          "type": "bool"
        }
      ],
      "stateMutability": "view",
      "type": "function"
    },
    {
      "inputs": [
        {
          "internalType": "uint256",
          "name": "",
          "type": "uint256"
        },
        {
          "internalType": "address",
          "name": "",
          "type": "address"
        }
      ],
      "name": "hasMinted",
      "outputs": [
        {
          "internalType": "bool",
          "name": "",
          "type": "bool"
        }
      ],
      "stateMutability": "view",
      "type": "function"
    },
    {
      "inputs": [
        {
          "internalType": "address",
          "name": "owner",
          "type": "address"
        },
        {
          "internalType": "address",
          "name": "operator",
          "type": "address"
        }
      ],
      "name": "isApprovedForAll",
      "outputs": [
        {
          "internalType": "bool",
          "name": "",
          "type": "bool"
        }
      ],
      "stateMutability": "view",
      "type": "function"
    },
    {
      "inputs": [
        {
          "internalType": "address",
          "name": "author",
          "type": "address"
        },
        {
          "internalType": "string",
          "name": "name",
          "type": "string"
        },
        {
          "internalType": "string",
          "name": "contentHash",
          "type": "string"
        },
        {
          "internalType": "string",
          "name": "arweaveId",
          "type": "string"
        },
        {
          "internalType": "string",
          "name": "version",
          "type": "string"
        },
        {
          "internalType": "uint256",
          "name": "price",
          "type": "uint256"
        },
        {
          "internalType": "uint256",
          "name": "maxSupply",
          "type": "uint256"
        },
        {
          "internalType": "uint96",
          "name": "royaltyFee",
          "type": "uint96"
        },
        {
          "internalType": "bool",
          "name": "onePerAddress",
          "type": "bool"
        }
      ],
      "name": "mintArticle",
      "outputs": [
        {
          "internalType": "uint256",
          "name": "",
          "type": "uint256"
        }
      ],
      "stateMutability": "payable",
      "type": "function"
    },
    {
      "inputs": [
        {
          "internalType": "uint256",
          "name": "",
          "type": "uint256"
        }
      ],
      "name": "mintedCount",
      "outputs": [
        {
          "internalType": "uint256",
          "name": "",
          "type": "uint256"
        }
      ],
      "stateMutability": "view",
      "type": "function"
    },
    {
      "inputs": [],
      "name": "name",
      "outputs": [
        {
          "internalType": "string",
          "name": "",
          "type": "string"
        }
      ],
      "stateMutability": "view",
      "type": "function"
    },
    {
      "inputs": [],
      "name": "owner",
      "outputs": [
        {
          "internalType": "address",
          "name": "",
          "type": "address"
        }
      ],
      "stateMutability": "view",
      "type": "function"
    },
    {
      "inputs": [
        {
          "internalType": "uint256",
          "name": "tokenId",
          "type": "uint256"
        }
      ],
      "name": "ownerOf",
      "outputs": [
        {
          "internalType": "address",
          "name": "",
          "type": "address"
        }
      ],
      "stateMutability": "view",
      "type": "function"
    },
    {
      "inputs": [],
      "name": "renounceOwnership",
      "outputs": [],
      "stateMutability": "nonpayable",
      "type": "function"
    },
    {
      "inputs": [
        {
          "internalType": "uint256",
          "name": "tokenId",
          "type": "uint256"
        },
        {
          "internalType": "uint256",
          "name": "salePrice",
          "type": "uint256"
        }
      ],
      "name": "royaltyInfo",
      "outputs": [
        {
          "internalType": "address",
          "name": "receiver",
          "type": "address"
        },
        {
          "internalType": "uint256",
          "name": "royaltyAmount",
          "type": "uint256"
        }
      ],
      "stateMutability": "view",
      "type": "function"
    },
    {
      "inputs": [
        {
          "internalType": "address",
          "name": "from",
          "type": "address"
        },
        {
          "internalType": "address",
          "name": "to",
          "type": "address"
        },
        {
          "internalType": "uint256",
          "name": "tokenId",
          "type": "uint256"
        }
      ],
      "name": "safeTransferFrom",
      "outputs": [],
      "stateMutability": "nonpayable",
      "type": "function"
    },
    {
      "inputs": [
        {
          "internalType": "address",
          "name": "from",
          "type": "address"
        },
        {
          "internalType": "address",
          "name": "to",
          "type": "address"
        },
        {
          "internalType": "uint256",
          "name": "tokenId",
          "type": "uint256"
        },
        {
          "internalType": "bytes",
          "name": "data",
          "type": "bytes"
        }
      ],
      "name": "safeTransferFrom",
      "outputs": [],
      "stateMutability": "nonpayable",
      "type": "function"
    },
    {
      "inputs": [
        {
          "internalType": "address",
          "name": "operator",
          "type": "address"
        },
        {
          "internalType": "bool",
          "name": "approved",
          "type": "bool"
        }
      ],
      "name": "setApprovalForAll",
      "outputs": [],
      "stateMutability": "nonpayable",
      "type": "function"
    },
    {
      "inputs": [
        {
          "internalType": "bytes4",
          "name": "interfaceId",
          "type": "bytes4"
        }
      ],
      "name": "supportsInterface",
      "outputs": [
        {
          "internalType": "bool",
          "name": "",
          "type": "bool"
        }
      ],
      "stateMutability": "view",
      "type": "function"
    },
    {
      "inputs": [],
      "name": "symbol",
      "outputs": [
        {
          "internalType": "string",
          "name": "",
          "type": "string"
        }
      ],
      "stateMutability": "view",
      "type": "function"
    },
    {
      "inputs": [
        {
          "internalType": "uint256",
          "name": "tokenId",
          "type": "uint256"
        }
      ],
      "name": "tokenURI",
      "outputs": [
        {
          "internalType": "string",
          "name": "",
          "type": "string"
        }
      ],
      "stateMutability": "view",
      "type": "function"
    },
    {
      "inputs": [
        {
          "internalType": "address",
          "name": "from",
          "type": "address"
        },
        {
          "internalType": "address",
          "name": "to",
          "type": "address"
        },
        {
          "internalType": "uint256",
          "name": "tokenId",
          "type": "uint256"
        }
      ],
      "name": "transferFrom",
      "outputs": [],
      "stateMutability": "nonpayable",
      "type": "function"
    },
    {
      "inputs": [
        {
          "internalType": "address",
          "name": "newOwner",
          "type": "address"
        }
      ],
      "name": "transferOwnership",
      "outputs": [],
      "stateMutability": "nonpayable",
      "type": "function"
    },
    {
      "inputs": [],
      "name": "withdraw",
      "outputs": [],
      "stateMutability": "nonpayable",
      "type": "function"
    }
  ],
  "bytecode": "0x60a06040523461037b57604080519081016001600160401b03811182821017610288576040908152600b82526a105c9d1a58db194813919560aa1b602083015280519081016001600160401b038111828210176102885760405260048152631053919560e21b602082015281516001600160401b03811161028857600054600181811c91168015610371575b602082101461026857601f811161030d575b50602092601f82116001146102a9579281929360009261029e575b50508160011b916000199060031b1c1916176000555b80516001600160401b03811161028857600154600181811c9116801561027e575b602082101461026857601f8111610203575b50602091601f821160011461019f57918192600092610194575b50508160011b916000199060031b1c1916176001555b60068054336001600160a01b03198216811790925560405191906001600160a01b03167f8be0079c531659141344cd1fd0a4f28419497f9722a3daafe3b4186f6b6457e0600080a36103e86080526120d29081610381823960805181610ef80152f35b01519050388061011b565b601f198216926001600052806000209160005b8581106101eb575083600195106101d2575b505050811b01600155610131565b015160001960f88460031b161c191690553880806101c4565b919260206001819286850151815501940192016101b2565b60016000527fb10e2d527612073b26eecdfd717e6a320cf44b4afac2b0732d9fcbe2b7fa0cf6601f830160051c8101916020841061025e575b601f0160051c01905b8181106102525750610101565b60008155600101610245565b909150819061023c565b634e487b7160e01b600052602260045260246000fd5b90607f16906100ef565b634e487b7160e01b600052604160045260246000fd5b0151905038806100b8565b601f1982169360008052806000209160005b8681106102f557508360019596106102dc575b505050811b016000556100ce565b015160001960f88460031b161c191690553880806102ce565b919260206001819286850151815501940192016102bb565b600080527f290decd9548b62a8d60345a988386fc84ba6bc95484008f6362f93160ef3e563601f830160051c81019160208410610367575b601f0160051c01905b81811061035b575061009d565b6000815560010161034e565b9091508190610345565b90607f169061008b565b600080fdfe608080604052600436101561001357600080fd5b600090813560e01c90816301ffc9a7146117005750806303780733146116b757806306fdde031461162f578063081812fc14611610578063095ea7b31461148c57806323b872dd146114675780632a55205a1461142f5780632ec03230146109785780633ccfd60b1461091f57806342842e0e146108ea5780635e354332146108c05780636352211e1461088f57806370a08231146107f9578063715018a61461079c5780638da5cb5b1461077357806395d89b4114610690578063a22cb465146105bc578063b88d4fde1461052e578063bd85d867146103b0578063c87b56dd1461033a578063e985e9c5146102e0578063edcfafe6146101ea5763f2fde38b1461011e57600080fd5b346101e75760203660031901126101e75761013761178c565b61013f611e0e565b6001600160a01b0316801561019357600680546001600160a01b0319811683179091556001600160a01b03167f8be0079c531659141344cd1fd0a4f28419497f9722a3daafe3b4186f6b6457e0600080a380f35b60405162461bcd60e51b815260206004820152602660248201527f4f776e61626c653a206e6577206f776e657220697320746865207a65726f206160448201526564647265737360d01b6064820152608490fd5b80fd5b50346101e75760203660031901126101e757604061014091600435815260076020522060018060a01b038154169060ff61022660018301611924565b61023260028401611924565b9261023f60038201611924565b936102b061024f60048401611924565b6102a2600585015497610294600687015495610286600860078a0154990154996040519e8f9e8f90815281602082015201906117c5565b8c810360408e0152906117c5565b908a820360608c01526117c5565b9088820360808a01526117c5565b9460a087015260c086015260e08501526001600160601b03811661010085015260601c1615156101208301520390f35b50346101e75760403660031901126101e75760406102fc61178c565b91610305611771565b9260018060a01b031681526005602052209060018060a01b0316600052602052602060ff604060002054166040519015158152f35b50346101e75760203660031901126101e757600435600090815260026020526040902054610372906001600160a01b03161515611b9e565b80604051610381602082611857565b52506103ac604051610394602082611857565b600081526040519182916020835260208301906117c5565b0390f35b50346101e75760203660031901126101e7576004359081815260076020526040812091604051926103e084611824565b80546001600160a01b031684526103f960018201611924565b602085019081529261040d60028301611924565b604086019081529461042160038401611924565b606082019081529261043560048201611924565b948560808401526005820154958660a08501526006830154918260c08601526007840154938460e087015260080154956101008601956001600160601b038816875261012081019760601c60ff1615158852600160a01b6001900390511699519a5197519181526008602052604090205494516001600160601b031695511515966040519a8b9a8b5260208b0161016090526101608b016104d5916117c5565b8a810360408c01526104e6916117c5565b89810360608b01526104f7916117c5565b88810360808a0152610508916117c5565b9560a088015260c087015260e08601526101008501526101208401526101408301520390f35b50346101e75760803660031901126101e75761054861178c565b610550611771565b906064359060443567ffffffffffffffff83116105b857366023840112156105b8576105b59361058d6105b0943690602481600401359101611895565b926105a061059b8433611c0d565b611a06565b6105ab838383611ce0565b611ff7565b611eb9565b80f35b8480fd5b50346101e75760403660031901126101e7576105d661178c565b6024359081151580920361068c576001600160a01b031690338214610647573383526005602052604083208284526020526040832060ff1981541660ff83161790556040519081527f17307eab39ab6107e8899845ad3d59bd9653f200f220920489ca2b5937696c3160203392a380f35b60405162461bcd60e51b815260206004820152601960248201527f4552433732313a20617070726f766520746f2063616c6c6572000000000000006044820152606490fd5b8280fd5b50346101e757806003193601126101e7576040519080600154906106b3826118ea565b808552916001811690811561074c57506001146106ef575b6103ac846106db81860382611857565b6040519182916020835260208301906117c5565b600181527fb10e2d527612073b26eecdfd717e6a320cf44b4afac2b0732d9fcbe2b7fa0cf6939250905b808210610732575090915081016020016106db826106cb565b919260018160209254838588010152019101909291610719565b60ff191660208087019190915292151560051b850190920192506106db91508390506106cb565b50346101e757806003193601126101e7576006546040516001600160a01b039091168152602090f35b50346101e757806003193601126101e7576107b5611e0e565b600680546001600160a01b0319811690915581906001600160a01b03167f8be0079c531659141344cd1fd0a4f28419497f9722a3daafe3b4186f6b6457e08280a380f35b50346101e75760203660031901126101e7576001600160a01b0361081b61178c565b168015610838578160409160209352600383522054604051908152f35b60405162461bcd60e51b815260206004820152602960248201527f4552433732313a2061646472657373207a65726f206973206e6f7420612076616044820152683634b21037bbb732b960b91b6064820152608490fd5b50346101e75760203660031901126101e75760206108ae600435611bea565b6040516001600160a01b039091168152f35b50346101e75760203660031901126101e75760406020916004358152600883522054604051908152f35b50346101e7576105b56105b06108ff366117ea565b906040519261090f602085611857565b8684526105a061059b8433611c0d565b50346101e757806003193601126101e757610938611e0e565b4780156109695760065482918291829182916001600160a01b031682f11561095d5780f35b604051903d90823e3d90fd5b63177b02e160e31b8252600482fd5b506101203660031901126101e75761098e61178c565b60243567ffffffffffffffff811161068c576109ae9036906004016118cc565b9060443567ffffffffffffffff811161142b576109cf9036906004016118cc565b9160643567ffffffffffffffff81116105b8576109f09036906004016118cc565b9060843567ffffffffffffffff811161142757610a119036906004016118cc565b9160c4359460e4356001600160601b03811680910361142357610104359687151580980361141f5784511561141057825115611401578351156113f25780156113e35761271082116113d45760a43534106113c5576040516020810190610aa78160208751610a838187848c016117a2565b8951908301610a9782848301858e016117a2565b010103601f198101835282611857565b519020808a52600760205260408a20549098906001600160a01b03166112b15760405192610ad484611824565b60018060a01b038916845260208401928784528560408601528660608601528860808601524260a086015260a43560c086015260e08501526101008401526101208301528789526007602052604089209060018060a01b0360018060a01b03845116166001600160601b0360a01b8354161782555180519067ffffffffffffffff821161104b578190610b6a60018501546118ea565b601f811161125f575b50602090601f83116001146111f6578c926111eb575b50508160011b916000199060031b1c19161760018201555b604082015180519067ffffffffffffffff821161104b578190610bc760028501546118ea565b601f8111611199575b50602090601f8311600114611130578c92611125575b50508160011b916000199060031b1c19161760028201555b606082015180519067ffffffffffffffff821161104b578190610c2460038501546118ea565b601f81116110d3575b50602090601f831160011461106a578c9261105f575b50508160011b916000199060031b1c19161760038201555b608082015180519067ffffffffffffffff821161104b57610c7f60048401546118ea565b601f8111611006575b50602090601f8311600114610f9a5760089392918c9183610f8f575b50508160011b916000199060031b1c19161760048201555b60a0830151600582015560c0830151600682015560e0830151600782015501906001600160601b036101008201511682549161012060ff60601b910151151560601b16916cffffffffffffffffffffffffff1916171790555b60a435610ee7575b602096604051610d2d8982611857565b8181523315610ea457610e807fd6eaf834342c777d70bc073ef973edeecb03e6d702efa419f5356a993825840694610e72610e5f9560408c99968e610e176105b0610e99998e610d9b610d9582600052600260205260018060a01b0360406000205416151590565b15612050565b600081815260026020526040902054610dbe906001600160a01b03161515610d95565b3380875260038652878720805460010190558187526002865287872080546001600160a01b031916821790558190877fddf252ad1be2c89b69c2b068fc378daa952ba7f163c4a11628f55a4df523b3ef8180a433611edd565b8b825260088152828220600181540190558b8252600981528282209060018060a01b03331683525220600160ff1982541617905560405196879660a0885260a08801906117c5565b34878f01528681036040880152906117c5565b9084820360608601526117c5565b828103608084015233976001600160a01b0316966117c5565b0390a4604051908152f35b6064896040519062461bcd60e51b825280600483015260248201527f4552433732313a206d696e7420746f20746865207a65726f20616464726573736044820152fd5b86612710610f1e6001600160601b037f00000000000000000000000000000000000000000000000000000000000000001634611a68565b048180823414610f86575b81908190819034869003906001600160a01b038d1690f115610f7957600654829182918291906001600160a01b0316828215610f70575bf1610d1d576040513d88823e3d90fd5b506108fc610f60565b50604051903d90823e3d90fd5b506108fc610f29565b015190503880610ca4565b600484018c52818c209190601f1984168d5b818110610fee5750916001939185600897969410610fd5575b505050811b016004820155610cbc565b015160001960f88460031b161c19169055388080610fc5565b92936020600181928786015181550195019301610fac565b600484018c5260208c20601f840160051c810160208510611044575b8d601f840160051c8301821061103a57505050610c88565b8155600101611022565b5080611022565b634e487b7160e01b8b52604160045260248bfd5b015190503880610c43565b600385018d52818d209250601f1984168d5b8181106110bb57509084600195949392106110a2575b505050811b016003820155610c5b565b015160001960f88460031b161c19169055388080611092565b9293602060018192878601518155019501930161107c565b909150600384018c5260208c20601f840160051c81016020851061111e575b84939291908e5b601f840160051c8301821061111057505050610c2d565b81558594506001018e6110f9565b50806110f2565b015190503880610be6565b600285018d52818d209250601f1984168d5b8181106111815750908460019594939210611168575b505050811b016002820155610bfe565b015160001960f88460031b161c19169055388080611158565b92936020600181928786015181550195019301611142565b909150600284018c5260208c20601f840160051c8101602085106111e4575b84939291908e5b601f840160051c830182106111d657505050610bd0565b81558594506001018e6111bf565b50806111b8565b015190503880610b89565b600185018d52818d209250601f1984168d5b818110611247575090846001959493921061122e575b505050811b016001820155610ba1565b015160001960f88460031b161c1916905538808061121e565b92936020600181928786015181550195019301611208565b909150600184018c5260208c20601f840160051c8101602085106112aa575b84939291908e5b601f840160051c8301821061129c57505050610b73565b81558594506001018e611285565b508061127e565b505050858752600760205260408720604051906112cd82611824565b80546001600160a01b031682526112e660018201611924565b60208301526112f760028201611924565b604083015261130860038201611924565b606083015261131960048201611924565b6080830152600581015460a0830152600681015460c083015260ff610120600860078401549360e086019485520154936001600160601b038516610100820152019260601c161515825287895260086020526040892054905111156113b65751151580611395575b15610d1557631bbdf5c560e31b8752600487fd5b50858752600960209081526040808920338a5290915287205460ff16611381565b63c30436e960e01b8852600488fd5b63cd1c886760e01b8952600489fd5b63112e4ee960e21b8952600489fd5b6319dc46b960e31b8952600489fd5b63edd5eaad60e01b8952600489fd5b631f7dec5560e01b8952600489fd5b631ff3ed9d60e01b8952600489fd5b8880fd5b8780fd5b8580fd5b8380fd5b50346101e75760403660031901126101e7576040611451602435600435611a91565b82516001600160a01b0390921682526020820152f35b50346101e7576105b5611479366117ea565b9161148761059b8433611c0d565b611ce0565b50346101e75760403660031901126101e7576114a661178c565b602435906001600160a01b036114bb83611bea565b6001600160a01b0390921691168181146115c1578033149081156115a0575b50156115355781835260046020526040832080546001600160a01b031916821790556001600160a01b0361150d83611bea565b167f8c5be1e5ebec7d5bd14f71427d1e84f3dd0314c0f7b2291e5b200ac8c7c3b9258480a480f35b60405162461bcd60e51b815260206004820152603d60248201527f4552433732313a20617070726f76652063616c6c6572206973206e6f7420746f60448201527f6b656e206f776e6572206f7220617070726f76656420666f7220616c6c0000006064820152608490fd5b84525060056020908152604080852033865290915283205460ff16386114da565b60405162461bcd60e51b815260206004820152602160248201527f4552433732313a20617070726f76616c20746f2063757272656e74206f776e656044820152603960f91b6064820152608490fd5b50346101e75760203660031901126101e75760206108ae6004356119c8565b50346101e757806003193601126101e7576040519080805490611651826118ea565b808552916001811690811561074c5750600114611678576103ac846106db81860382611857565b80805260208120939250905b80821061169d575090915081016020016106db826106cb565b919260018160209254838588010152019101909291611684565b50346101e75760403660031901126101e75760ff60406020926116d8611771565b6004358252600985528282206001600160a01b03909116825284522054604051911615158152f35b90503461176d57602036600319011261176d5760043563ffffffff60e01b811680910361068c57602092506380ac58cd60e01b811490811561175c575b811561174b575b5015158152f35b6301ffc9a760e01b14905038611744565b635b5e139f60e01b8114915061173d565b5080fd5b602435906001600160a01b038216820361178757565b600080fd5b600435906001600160a01b038216820361178757565b60005b8381106117b55750506000910152565b81810151838201526020016117a5565b906020916117de815180928185528580860191016117a2565b601f01601f1916010190565b6060906003190112611787576004356001600160a01b038116810361178757906024356001600160a01b0381168103611787579060443590565b610140810190811067ffffffffffffffff82111761184157604052565b634e487b7160e01b600052604160045260246000fd5b90601f8019910116810190811067ffffffffffffffff82111761184157604052565b67ffffffffffffffff811161184157601f01601f191660200190565b9291926118a182611879565b916118af6040519384611857565b829481845281830111611787578281602093846000960137010152565b9080601f83011215611787578160206118e793359101611895565b90565b90600182811c9216801561191a575b602083101461190457565b634e487b7160e01b600052602260045260246000fd5b91607f16916118f9565b9060405191826000825492611938846118ea565b80845293600181169081156119a6575060011461195f575b5061195d92500383611857565b565b90506000929192526020600020906000915b81831061198a57505090602061195d9282010138611950565b6020919350806001915483858901015201910190918492611971565b90506020925061195d94915060ff191682840152151560051b82010138611950565b6000818152600260205260409020546119eb906001600160a01b03161515611b9e565b6000908152600460205260409020546001600160a01b031690565b15611a0d57565b60405162461bcd60e51b815260206004820152602d60248201527f4552433732313a2063616c6c6572206973206e6f7420746f6b656e206f776e6560448201526c1c881bdc88185c1c1c9bdd9959609a1b6064820152608490fd5b81810292918115918404141715611a7b57565b634e487b7160e01b600052601160045260246000fd5b6000818152600260205260409020549192916001600160a01b031615611b8d5760005260076020526040600020600860405191611acd83611824565b80546001600160a01b03168352611ae660018201611924565b6020840152611af760028201611924565b6040840152611b0860038201611924565b6060840152611b1960048201611924565b6080840152600581015460a0840152600681015460c0840152600781015460e084015201549060ff6001600160601b038316928361010084015260601c1615156101208201528115611b8157516001600160a01b03169261271091611b7d91611a68565b0490565b50509050600090600090565b63224a1b1160e11b60005260046000fd5b15611ba557565b60405162461bcd60e51b815260206004820152601860248201527f4552433732313a20696e76616c696420746f6b656e20494400000000000000006044820152606490fd5b6000908152600260205260409020546001600160a01b03166118e7811515611b9e565b906001600160a01b03611c1f82611bea565b6001600160a01b0390931692168281149291908315611c5f575b508215611c4557505090565b9091506001600160a01b0390611c5a906119c8565b161490565b909250600052600560205260406000208160005260205260ff604060002054169138611c39565b15611c8d57565b60405162461bcd60e51b815260206004820152602560248201527f4552433732313a207472616e736665722066726f6d20696e636f72726563742060448201526437bbb732b960d91b6064820152608490fd5b90611d01611ced84611bea565b6001600160a01b0393841693168314611c86565b6001600160a01b0316908115611dbd57611d2d816001600160a01b03611d2686611bea565b1614611c86565b82600052600460205260406000206001600160601b0360a01b8154169055806000526003602052604060002060001981540190558160005260036020526040600020600181540190558260005260026020526040600020826001600160601b0360a01b8254161790557fddf252ad1be2c89b69c2b068fc378daa952ba7f163c4a11628f55a4df523b3ef600080a4565b60405162461bcd60e51b8152602060048201526024808201527f4552433732313a207472616e7366657220746f20746865207a65726f206164646044820152637265737360e01b6064820152608490fd5b6006546001600160a01b03163303611e2257565b606460405162461bcd60e51b815260206004820152602060248201527f4f776e61626c653a2063616c6c6572206973206e6f7420746865206f776e65726044820152fd5b60809060208152603260208201527f4552433732313a207472616e7366657220746f206e6f6e20455243373231526560408201527131b2b4bb32b91034b6b83632b6b2b73a32b960711b60608201520190565b15611ec057565b60405162461bcd60e51b815280611ed960048201611e66565b0390fd5b91823b15611fef57611f23926020926000604051809681958294630a85bd0160e11b845233600485015284602485015260448401526080606484015260848301906117c5565b03926001600160a01b03165af18091600091611fac575b5090611f96573d15611f8f573d611f5081611879565b90611f5e6040519283611857565b81523d6000602083013e5b80519081611f8a5760405162461bcd60e51b815280611ed960048201611e66565b602001fd5b6060611f69565b6001600160e01b031916630a85bd0160e11b1490565b6020813d602011611fe7575b81611fc560209383611857565b8101031261176d5751906001600160e01b0319821682036101e7575038611f3a565b3d9150611fb8565b505050600190565b919290803b1561204757611f2393600060209460405196879586948593630a85bd0160e11b855233600486015260018060a01b0316602485015260448401526080606484015260848301906117c5565b50505050600190565b1561205757565b60405162461bcd60e51b815260206004820152601c60248201527f4552433732313a20746f6b656e20616c7265616479206d696e746564000000006044820152606490fdfea26469706673582212208ae7bb7c7e6983168969e2c8f008d21f6e02ea22455b54ade02bbe2ff1ad172564736f6c634300081c0033",
  "linkReferences": {},
  "deployedLinkReferences": {}
}